:020000040000FA
:10000000B20140290408A0002A0884002B088500BA
:1000100020088000AA0A03143D29B216B21EB212AB
:10002000B2191628B215672003184E280830A3000D
:100030007C20A20DA30B1828B21E5B208A208420EE
:10004000B21A4E205320220803103D293217321FC6
:100050003213860029080310031D3128321B4E2855
:100060003D291600392003183D29A9032A28B21674
:10007000B21EB21232194128FE39B30032150310F4
:100080003D29321A4928A6003216672003184E2847
:1000900026086F2003184E28B21E3D295B208A20B7
:1000A00032113212B2113808850036088400063148
:1000B0003408800463283808850036088400340931
:1000C0008005063180056428652866283D2953206F
:1000D0008A203F215B2084203308B2190138A20016
:1000E0000830A300A20D03185320031C5B208A20B4
:1000F0008420A30B722853208A20380885003608F4
:10010000840034080005FF3E390885003708840064
:1001100035096028390885003708840035085928D2
:10012000A400A90803193D2924083821A90392280D
:10013000B31329080319B3170530A8002730A3000B
:100140001030AE200330A300E830AE20A3016430AD
:10015000AE20A3010A30AE202408B528A20025084D
:10016000A1002408A0000C212008A000A803031966
:10017000B31329080319BF28280203180800200810
:10018000031DB313B31B0800303E38298001013131
:10019000090BFC333D29A301A200FF30A207031C79
:1001A000A307031C3D290330A100E730D920CD2847
:1001B000A101A0000000023064000310A03B030175
:1001C000A13B0318DC280800A035A10DFF3E031851
:1001D000E42820083D29A2000230F828A101A3014B
:1001E000A2000330F828A2000130F828A200053050
:1001F000A80023082102031DFF2822082002043042
:1002000003180130031902302805031DFF303D2972
:100210000404031DFF303D29A501A4011030A600F0
:10022000210DA40DA50D2208A4022308A53B031847
:100230001E292208A4072308A53D0310A00DA10D27
:10024000A60B102920083D291030A800A101A0010B
:10025000A70CA60C031C30292208A0072308A13DE7
:10026000A10CA00CA50CA40CA80B282924083D293E
:10027000840031088A0030088200400164000800D0
:1002800020308400850160308031C620A030840099
:10029000850150308031C620203084000130850037
:1002A00050308031C620A0308400013085005030AD
:1002B0008031C620203084000230850050308031EB
:1002C000C620A03084000230850050308031C62026
:1002D000203084000330850050308031C620A030AB
:1002E00084000330850050308031C62020308400E7
:1002F0000430850050308031C620A03084000430A6
:10030000850050308031C6202030840005308500C3
:1003100050308031C620A030840005308500503038
:100320008031C62020308400063085005030803176
:10033000C62051018D017E01B801C301CE014001EB
:10034000FF30920093010C3094008431C62C0830A9
:100350006D04CF0008306D04E4000030E500043087
:100360006404D00008306D04D2000E30B6000030B6
:10037000B8000230B4000E30B7000030B9000130D0
:10038000B5004E30803139200330A90087014F304D
:10039000803126200A308031CB200800F0306D05F6
:1003A000E400E50108306404CF00F0306D05E4009E
:1003B000E5010830E4040030E50404306404D000B2
:1003C000F0306D05E400E50108306404D1000F3021
:1003D0006D05E400E5016408A0006508A100043093
:1003E0008031E620E4002108E50008306404D200F2
:1003F0000F306D05E400E5016408A0006508A10068
:1004000004308031E620E4002108E5000830E404EF
:100410000030E50404306404D3000F306D05E400BF
:10042000E5016408A0006508A10004308031E620E1
:10043000E4002108E50008306404D4000E30B60062
:100440000030B8000230B4000E30B7000030B90000
:100450000130B5004E30803139200630A9008701C7
:100460004F30803126200A308031CB2008003A30CE
:10047000AA00AB016C08143CE4000030031CFF3EF2
:10048000E5006408A9000230B000B10120308031DD
:100490009020003080310320F20164001430720299
:1004A00082310318FF2A6E08A00004308031EE204C
:1004B000E4006C08A00014308031EE20E6006408EF
:1004C0008400660881310821E600E70064006608C0
:1004D0006704823103196E2A8231FF2A72083A3E7C
:1004E000840000308501853D0008ED0064006D0842
:1004F000003C8231031D7E2A8231FF2AF0306D05D7
:10050000E400E5010830E4040030E504013064044F
:10051000CF00F0306D05E400E5010830E404003060
:10052000E5040130E4040030E50404306404D00044
:10053000F0306D05E400E5010830E4040030E50426
:1005400001306404D1000F306D05E400E50164085A
:10055000A0006508A10004308031E620E4002108F5
:10056000E5000830E4040030E50401306404D20002
:100570000F306D05E400E5016408A0006508A100E6
:1005800004308031E620E4002108E5000830E4046E
:100590000030E5040130E4040030E5040430640474
:1005A000D3000F306D05E400E5016408A000650884
:1005B000A10004308031E620E4002108E500083085
:1005C000E4040030E50401306404D4000E30B600C9
:1005D0000030B8000230B4000E30B7000030B9006F
:1005E0000130B5004E30803139200630A900870136
:1005F0004F3080312620EC0AF20A031D4E330800EA
:100600000130ED008131CE296E08A0000430803128
:10061000EE20E4006C08A00014308031EE20E600EB
:1006200064088400660881310821E600E700640060
:1006300066086704833103191E2B08006E085A3EB2
:10064000840000308501853D0008E40080306407A7
:10065000E400E501E50D64086C07ED008131CE2969
:100660000130EE00EC018331042382314C228231CF
:1006700037220730A300D0308031CC2008005A3018
:10068000AA00AB01003080310320403080310320CC
:100690001430803103205430803103200E30B600F6
:1006A0000030B8000230B4000E30B7000030B9009E
:1006B0000130B5004E308031392000308031372094
:1006C00064308031CB203030ED008131A721813181
:1006D000A7218131A7212030ED008131A7212830C9
:1006E000ED008131CE212830ED008131CE2108305E
:1006F000ED008131CE210130ED008131CE21063077
:10070000ED008131CE212830ED008131CE210F3036
:10071000ED008131CE2174330E30B6000030B800C8
:100720000230B4000E30B7000030B9000130B5001F
:10073000A0308031392083310318EB2B5F088031E2
:10074000392083310318EB2B5E0880313720833149
:100750000318EB2B0E30B6000030B8000230B400A6
:100760000E30B7000030B9000130B500A030803144
:10077000392083310318EB2B80310D20833103188E
:10078000EB2BF10008000E30B6000030B80002304C
:10079000B4000E30B7000030B9000130B500A03011
:1007A0008031392083310318EB2B5F0880313920E9
:1007B00083310318EB2B5E08803139208331031815
:1007C000EB2B71088031372083310318EB2B0A3073
:1007D0008031CB2008003A30AA00AB01453080318F
:1007E00003204530803103205030803103205230C7
:1007F000803103204F30803103204D308031032081
:100800002030803103204530803103207230803128
:1008100003207230803103206F308031032072302A
:10082000803103200030803103201A33EB01EE01C8
:10083000EC01833104233A30AA00AB0153308031FC
:100840000320573080310320A9017F08A400A501AF
:100850000230B000B1018031982020308031032077
:1008600000308031032082314C2220307905E400B1
:10087000E50164006408650484310319532C3A309F
:10088000AA00AB014F30803103205030803103206B
:100890004530803103204E308031032000308031DC
:1008A00003208431652C3A30AA00AB01203080311E
:1008B000032020308031032020308031032020307D
:1008C0008031032000308031032082314C226400CB
:1008D0008431771C972C80307C05E400E5016400AE
:1008E0006408650484310319892C3A30AA00AB01ED
:1008F0004430803103206F308031032077308031E5
:1009000003206E3080310320003080310320843199
:10091000952C3A30AA00AB0155308031032050307D
:100920008031032000308031032082314C22EC01E1
:100930000130EE00833104233A30AA00AB01443089
:1009400080310320203080310320A9017008A400E9
:10095000A5010230B000B1018031982020308031F3
:1009600003204D3080310320203080310320A90145
:100970007508A400A5010230B000B10180319820B3
:1009800000308031032082314C2208009201930113
:100990007E088C007E088D00FE0AF83364008E1DF0
:1009A000FD3320308D0083313F238731C927033049
:1009B000FD007909FE00883176200430FB00883183
:1009C00070202030FC0088316A20FF30EA00873137
:1009D0008527DF30E400FF30E5007C08E405E50111
:1009E0000F306407FC0088316A2007307B05E40083
:1009F000E50108306404FB0088317020FA30803152
:100A0000CB2007307B05E400E501F8307B05E600EC
:100A1000E701E635E70D64086604FB00F8307B0566
:100A2000E400E501A001A1016508A300640880318C
:100A3000F620031DE133F030E400FF30E5007C08D0
:100A4000E405E50120306404FC0088316A200730A9
:100A5000FB0588317020EF01640005306F0285319D
:100A60000318562D6F08DE00DF0183318C236F08D9
:100A7000553E840000308501853D710880006F0877
:100A8000553E840000308501853D0008E4007F303C
:100A90006405E400E5016F08553E840000308501DF
:100AA000853D64088000EF0A031DD6338631A526F4
:100AB0000130EB008731C92701307905E400E501F9
:100AC000A001A1016508A30064088031F6208531EA
:100AD000031D6D2DFF018531A52D02307905E40040
:100AE000E501A001A1016508A30064088031F6209A
:100AF0008531031D7F2D0130FF008531A52D043088
:100B00007905E400E501A001A1016508A3006408DE
:100B10008031F6208531031D912D0230FF00853193
:100B2000A52D08307905E400E501A001A1016508C3
:100B3000A30064088031F6208531031DA32D033006
:100B4000FF008531A52D0430FF00883109202030B9
:100B50007905E400E5016400640865048631031941
:100B60000E2E640041012008013C85314001031D27
:100B7000C12D87317527C030EA008731852786313E
:100B80000C2E640041012008023C85314001031D08
:100B9000D12D87318127C030EA0087318527863102
:100BA0000C2E64008531771CD72D873166274030A5
:100BB0007905E400E501A001A1016508A30064082E
:100BC0008031F6208531031DF02DF714DF30E4006D
:100BD000FF30E5006408FC0588316A2086310C2E60
:100BE00064008631F71C0C2EF7108731C2277F086E
:100BF000DE00DF017008F1008331C3237F08EF00BE
:100C00006F08553E840000308501853D70088000E6
:100C10002030FC0488316A2086319C2E8731C2271F
:100C2000F030E400FF30E5006408FC056F08A60022
:100C3000A7010230A200A30181312421E40025088C
:100C4000E5000130A000A10164088031E620E40045
:100C50002108E5006408A0006508A100A301003098
:100C60008031EB20E40064086205E400E5016400E3
:100C70006408650486310319412E0430FC04863172
:100C8000432E0830FC046F08A600A7010230A20022
:100C9000A30181312421E4002508E5000230A000F1
:100CA000A10164088031E620E4002108E500640821
:100CB000A0006508A100A30100308031EB20E40012
:100CC00064086205E400E501640064086504863197
:100CD00003196E2E0130FC048631702E0230FC04A4
:100CE00088316A2007307B05E400E5010830A00068
:100CF000A1016F088031E620E6002108E7006408C2
:100D00006604FB008831702064008631771C942EC5
:100D10008631A52664006F087F028631031D922E5E
:100D20008731222786319C2E64006F087F0286312E
:100D300003199C2E8631D02664006B088631031976
:100D4000A32E8431162485315A2DEF01640005301D
:100D50006F0286310318CD2E6F08553E8400003097
:100D60008501853D0008E40070086402E400E501A7
:100D7000031CE5037F30E4050030E5056408A000AE
:100D80006508A100A30119308031F3208631031DCD
:100D9000CA2E0800EF0A031DD9330430EF00080003
:100DA0008731BC277508F60064007F086F02863122
:100DB0000318F32E6F087F02E400E501031CE5032E
:100DC0006408A0006508A100A30103308031F02071
:100DD0008631031DEF2E873175278631F12E87313D
:100DE000812787310A2F7F086F02E400E501031C89
:100DF000E5036408A0006508A100A3010330803169
:100E0000F0208731031D082F8731812787310A2F72
:100E100087317527C030EA00640060306A0287318C
:100E2000031C212F8731852764006A08603C8731C5
:100E300003191D2F08308031CB200130EA0203183E
:100E4000EB3308006030EA006400C0306A0287318A
:100E50000318362F0830EA07873185276400C03031
:100E60006A0287310318362F87315527E801873109
:100E7000BC276400750876028731031D4A2FE80AF3
:100E800064006808023C8731031D4A2F87316227BE
:100E90008731662F64004E0183108C1E831440013D
:100EA0008318E53387316227CF334B01FF309D0034
:100EB0009C016A309F004E018C124B0180309E00D5
:100EC000400108004B019E0140010800FF30EA008C
:100ED000873185273F30E400FF30E5006408FC05DA
:100EE00088316A200130EB0008007F30E400FF30D9
:100EF000E5007C08E405E50140306404FC0088312D
:100F00006A28C030FC0488316A28F830FB05883133
:100F100070200A30FD000330FE0088317620093051
:100F2000FD006A08FE00883176200D30FD0001309A
:100F3000FE008831762850308031D82064006A085D
:100F4000FF3C8731031DA72F77108731A82F771417
:100F5000080020307D048D0020307D04E400003046
:100F6000E500103064048D0001308031D8200C0879
:100F7000FE007D088D000800FD018731A9277E084D
:100F8000F50008000130FD008731A9277E08F00038
:100F900008000230FD008731A9277E08F8003230B2
:100FA0008031CB208731A92764007E087802031D99
:100FB000F4337E08F900EC010230EE0083310423A3
:100FC0003A30AA00AB01A9017E08A400A5010230B5
:100FD000B000B10180319820203080310320A90178
:100FE0006908A400A5010230B000B1018031982049
:100FF000003080310320E90A82314C2264007908F4
:1010000073028831031908287908F3000130EB00D6
:1010100008000530FD008731A9277E08E200E301C2
:101020000630FD008731A92703307E05E400E50185
:101030006408A0006508A10008308031E620E400C3
:101040002108E5006408E2046508E3046008A000E4
:101050006108A1006308A30062088031EB20883199
:10106000031D38286208E0006308E1000130EB004E
:1010700040307E05E400E5016400640865048831C1
:101080000319482841010130A000400188315B2844
:1010900080307E05E400E501640064086504883161
:1010A0000319582841010230A000400188315B2813
:1010B0004101A0014001640074084101200288310F
:1010C000400103196928410120084001F400013062
:1010D000EB0008000730FD007C08FE008831762810
:1010E0000430FD007B08FE00883176287D088D00E5
:1010F00010307D048D007E088C0092017D088D00EB
:0A110000FF30920008006300FE3388
:020000040001F9
:02000E00883B2D
:080010007D37BF07FF1FFF3F12
:00000001FF
