:020000040000FA
:10000000B2013D290408A0002A0884002B088500BD
:1000100020088000AA0A03143A29B216B21EB212AE
:10002000B2191628B215672003184E280830A3000D
:100030007C20A20DA30B1828B21E5B208A208420EE
:10004000B21A4E205320220803103A293217321FC9
:100050003213860029080310031D3128321B4E2855
:100060003A291600392003183A29A9032A28B2167A
:10007000B21EB21232194128FE39B30032150310F4
:100080003A29321A4928A6003216672003184E284A
:1000900026086F2003184E28B21E3A295B208A20BA
:1000A00032113212B2113808850036088400053149
:1000B0003408800463283808850036088400340931
:1000C0008005053180056428652866283A29532073
:1000D0008A203C215B2084203308B2190138A20019
:1000E0000830A300A20D03185320031C5B208A20B4
:1000F0008420A30B722853208A20380885003608F4
:10010000840034080005FF3E390885003708840064
:1001100035096028390885003708840035085928D2
:10012000A400A90803193A2924083521A903922813
:10013000B31329080319B3170530A8002730A3000B
:100140001030AE200330A300E830AE20A3016430AD
:10015000AE20A3010A30AE202408B528A20025084D
:10016000A1002408A00009212008A000A803031969
:10017000B31329080319BF28280203180800200810
:10018000031DB313B31B0800303E35298001013134
:10019000090BFC333A29A301A200FF30A207031C7C
:1001A000A307031C3A290330A100E730D920CD284A
:1001B000A101A0000000023064000310A03B030175
:1001C000A13B0318DC280800A035A10DFF3E031851
:1001D000E42820083A29A2000230F528A101A30151
:1001E000A2000330F528A2000530A8002308210250
:1001F000031DFC28220820020430031801300319D3
:1002000002302805031DFF303A290404031DFF3086
:100210003A29A501A4011030A600210DA40DA50DB9
:100220002208A4022308A53B03181B292208A407BF
:100230002308A53D0310A00DA10DA60B0D29200834
:100240003A291030A800A101A001A70CA60C031C9C
:100250002D292208A0072308A13DA10CA00CA50C64
:10026000A40CA80B252924083A29840031088A0007
:1002700030088200200064000800203084008501DE
:1002800060308031C620A03084008501503080313C
:10029000C620203084000130850050308031C620D7
:1002A000A03084000130850050308031C6202030DD
:1002B00084000230850050308031C620A030840098
:1002C0000230850050308031C62020308400033059
:1002D000850050308031C620A03084000330850076
:1002E00050308031C62020308400043085005030EA
:1002F0008031C620A0308400043085005030803129
:10030000C620203084000530850050308031C62062
:10031000A03084000530850050308031C620203068
:1003200084000630850050308031C62031008D01B8
:100330003E00B801C301CE012000FF3091009201C0
:100340000C3093008531112D08307604CF00083031
:100350007604EE000030EF0004306E04D000083068
:100360007604D2000E30B6000030B8000230B4007F
:100370000E30B7000030B9000130B5004E3080318A
:1003800039200330A90087014F30803126200A3000
:100390008031CB200800F0307605EE00EF01083008
:1003A0006E04CF00F0307605EE00EF010830EE0469
:1003B0000030EF0404306E04D000F0307605EE001B
:1003C000EF0108306E04D1000F307605EE00EF012A
:1003D0006E08A0006F08A10004308031E620EE0016
:1003E0002108EF0008306E04D2000F307605EE00D1
:1003F000EF016E08A0006F08A10004308031E620F4
:10040000EE002108EF000830EE040030EF04043065
:100410006E04D3000F307605EE00EF016E08A000E9
:100420006F08A10004308031E620EE002108EF00C3
:1004300008306E04D4000E30B6000030B800023030
:10044000B4000E30B7000030B9000130B5004E30B6
:10045000803139200630A90087014F3080312620B5
:100460000A308031CB2008003A30AA00AB01750871
:10047000143CEE000030031CFF3EEF006E08A900A4
:100480000230B000B1012030803190200030803146
:100490000320FB01640014307B0282310318FC2A24
:1004A0007708A00004308031EE20EE007508A0002F
:1004B00014308031EE20F0006E0884007008813125
:1004C0000521F000F1006400700871048231031905
:1004D0006B2A8231FC2A7B083A3E84000030850179
:1004E000853D0008F60064007608003C8231031D5B
:1004F0007B2A8231FC2AF0307605EE00EF010830CD
:10050000EE040030EF0401306E04CF00F0307605C9
:10051000EE00EF010830EE040030EF040130EE048D
:100520000030EF0404306E04D000F0307605EE00A9
:10053000EF010830EE040030EF0401306E04D1000A
:100540000F307605EE00EF016E08A0006F08A100E5
:1005500004308031E620EE002108EF000830EE0480
:100560000030EF0401306E04D2000F307605EE004B
:10057000EF016E08A0006F08A10004308031E62072
:10058000EE002108EF000830EE040030EF040130E7
:10059000EE040030EF0404306E04D3000F30760513
:1005A000EE00EF016E08A0006F08A100043080315A
:1005B000E620EE002108EF000830EE040030EF04E2
:1005C00001306E04D4000E30B6000030B8000230A6
:1005D000B4000E30B7000030B9000130B5004E3025
:1005E000803139200630A90087014F308031262024
:1005F000F50AFB0A031D4E3308000130F600813175
:10060000CB297708A00004308031EE20EE00750879
:10061000A00014308031EE20F0006E0884007008D5
:1006200081310521F000F10064007008710483310C
:1006300003191B2B08007708643E840000308501F5
:10064000853D0008EE0080306E07EE00EF01EF0DF3
:100650006E087507F6008131CB290130F700F501EE
:100660008331012382314922823134220730A300B1
:10067000D0308031CC2008006430AA00AB010030BB
:10068000803103204030803103201430803103203A
:100690005430803103200E30B6000030B8000230F4
:1006A000B4000E30B7000030B9000130B5004E3054
:1006B0008031392000308031372064308031CB20C8
:1006C0003030F6008131A4218131A4218131A4216F
:1006D0002030F6008131A4212830F6008131CB2171
:1006E0002830F6008131CB210830F6008131CB2152
:1006F0000130F6008131CB210630F6008131CB216B
:100700002830F6008131CB210F30F6008131CB212A
:1007100074330E30B6000030B8000230B4000E3032
:10072000B7000030B9000130B500A0308031392069
:1007300083310318E82B690880313920833103188D
:10074000E82B68088031372083310318E82B0E30FE
:10075000B6000030B8000230B4000E30B7000030F0
:10076000B9000130B500A030803139208331031841
:10077000E82B80310D2083310318E82BFA000800A4
:100780000E30B6000030B8000230B4000E30B700B2
:100790000030B9000130B500A030803139208331FC
:1007A0000318E82B69088031392083310318E82BBE
:1007B00068088031392083310318E82B7A088031AA
:1007C000372083310318E82B0A308031CB20080012
:1007D0003A30AA00AB0145308031032045308031EA
:1007E00003205030803103205230803103204F30BD
:1007F000803103204D3080310320203080310320B0
:1008000045308031032072308031032072308031D6
:1008100003206F308031032072308031032000309C
:10082000803103201A33F4018231FD22F701F501F2
:10083000833101233A30AA00AB01533080310320C9
:10084000573080310320A901210027082000A4008F
:10085000A5010230B000B1018031982020308031F4
:1008600003200030803103208231492264007E0859
:1008700084310319522C3A30AA00AB014F30803139
:1008800003205030803103204530803103204E302A
:10089000803103202030803103200030803103205C
:1008A0008431672C3A30AA00AB012030803103201C
:1008B00020308031032020308031032020308031EF
:1008C000032020308031032000308031032082312A
:1008D0004922640021002908013C84312000031DC5
:1008E000822C3A30AA00AB015530803103207030A1
:1008F00080310320203080310320003080310320FC
:100900008431AA2C640021002908023C8431200093
:10091000031D9B2C3A30AA00AB01443080310320E8
:100920005730803103204E30803103200030803139
:1009300003208431AA2C3A30AA00AB012030803148
:10094000032020308031032020308031032000300C
:1009500080310320823149226400843121008310D8
:10096000201C831420008318D72C803021002405FC
:100970002000EE00EF0164006E086F04843103195B
:10098000CC2C3A30AA00AB012D308031032000304E
:10099000803103208431D52C3A30AA00AB012B30B2
:1009A000803103200030803103208431E02C3A3044
:1009B000AA00AB01203080310320003080310320B9
:1009C00082314922F5010130F700833101233A30A9
:1009D000AA00AB0144308031032020308031032055
:1009E000A9017908A400A5010230B000B10180314D
:1009F00098202030803103204D308031032020307A
:100A000080310320A9017F08A400A5010230B000B5
:100A1000B101803198200030803103208231492299
:100A2000080064008E1DFD3320308D0083313C238F
:100A30008931CC2187314F27DF30EE00FF30EF00C6
:100A4000210024082000EE05EF010F306E07210081
:100A5000A40020008931C4212100A70120006400E6
:100A6000053021002702853120000318412D8931EE
:100A7000D121FA308031CB202100A70A2000031DAC
:100A8000EE33F030EE00FF30EF00210024082000AC
:100A9000EE05EF0120306E042100A4002000893112
:100AA000C4218931CC21F8016400053078028531F8
:100AB0000318872D7808A600A7010230A200A30121
:100AC00081312121E8002508E900833189237F3025
:100AD0007A05EE00EF017808553E8400003085016C
:100AE000853D6E088000E80A0319E90A83318923ED
:100AF0007F307A05EE00EF0178085A3E840000301E
:100B00008501853D6E088000F80A031DCD33013054
:100B1000F4008731B22764007E0886310319122E53
:100B2000640021002908013C85312000031DA02D0F
:100B300089318A21C030F300873158278631102E41
:100B4000640021002908023C85312000031DB02DDE
:100B500089319A21C030F300873158278631102E11
:100B60006400853121008310201C83142000831829
:100B7000BB2D87314F27640021002208003C8531BE
:100B80002000031DCA2D2100A014200089318021DE
:100B90008631102E6400863121008310A01C83143E
:100BA00020008318102E2100A01020008731A727D5
:100BB000210027082000A600A7010230A200A301FF
:100BC00081312121E8002508E9007908FA00833104
:100BD000C023E80A0319E90A7F08FA0080302100DF
:100BE00024052000EE00EF0164006E086F048631DA
:100BF0000319022E06307F07EE00EF01EF0D7F3064
:100C00006E05FF008331C02321002708553E840074
:100C100000308501853D20007908800089317A21E6
:100C200086316A2E8731A727F801640005307802E3
:100C300086310318492E7808553E8400003085011E
:100C4000853D0008EE006E0879022100A800803082
:100C500028052000EE00EF0164006E086F04863165
:100C600003193C2E210028092000EE00FF30EF0080
:100C70006E0A2100A800200064000C302100280228
:100C8000863120000318462E8631492EF80A031DAE
:100C9000CC336400863121008310201C8314200093
:100CA0008318602E8931DD21640078082100270235
:100CB00086312000031D5E2E8631C62686316A2EBF
:100CC00064007808210027028631200003196A2E6B
:100CD000863172266400740886310319712E8431BE
:100CE000132417336400210027082000780286317E
:100CF0000318952E7808210027022000EE00EF014E
:100D0000031CEF036E08A0006F08A100A3010330CD
:100D10008031F0208631031D912E89318A21863160
:100D2000932E89319A218631AE2E2100270820008A
:100D30007802EE00EF01031CEF036E08A0006F08BD
:100D4000A100A30103308031F0208631031DAC2EB9
:100D500089319A218631AE2E89318A21C030F30043
:100D60006400603073028631031CC52E873158271A
:100D700064007308603C86310319C12E083080314D
:100D8000CB200130F3020318EB3308006030F3008E
:100D90006400C030730286310318DA2E0830F3077E
:100DA000873158276400C030730286310318DA2E69
:100DB00087314227F20187319D27803021002405A9
:100DC0002000EE00EF0164006E086F048731031904
:100DD000012F06307F07EE00EF01EF0D7F30EE05AB
:100DE0000030EF0578085A3E840000308501853DCB
:100DF0000008F00070086E022100A8002000873172
:100E00000E2F78085A3E840000308501853D000889
:100E1000EE006E087F022100A80020008030210033
:100E200028052000EE00EF0164006E086F04873192
:100E30000319242F210028092000EE00FF30EF00C5
:100E40006E0A2100A800200064001430210028024E
:100E5000873120000318372FF20A64007208023C21
:100E60008731031D372F87314D2787314F2F64007E
:100E70002E0083108C1E8314200083189C3387312E
:100E80004D278633FF309D009C016A309F002E0065
:100E90008C12200080309E0008009E010800FF3068
:100EA000F300873158278931A0210130F400080070
:100EB00021000A30A5000330A60020008931EB2173
:100EC00021000930A500200073082100A6002000A1
:100ED0008931EB2121000D30A5000130A600200052
:100EE0008931EB2150308031D82064007308FF3CF9
:100EF0008731031D802F2100201020008731832F90
:100F000021002014200008002030210025042000AA
:100F10008D002030210025042000EE000030EF007D
:100F200010306E048D0001308031D8200C08210073
:100F3000A600250820008D0008002100A501200042
:100F400087318427210026082000FF0008002100A7
:100F50000130A500200087318427210026082000C9
:100F6000F900080021000230A50020008731842705
:100F700021002608A100323020008031CB208731AB
:100F8000842764002100260821022000031DF0337D
:100F900064002100260820007C02883103196028A3
:100FA000210026082000FC000130F400013021005F
:100FB00026052000EE00EF01A001A1016F08A300AB
:100FC0006E088031F3208731031DEB2F2100A7012C
:100FD0002000883131280230210026052000EE0053
:100FE000EF01A001A1016F08A3006E088031F3207A
:100FF0008831031D012821000130A700200088311D
:1010000031280430210026052000EE00EF01A00168
:10101000A1016F08A3006E088031F3208831031D01
:10102000172821000230A70020008831312808301D
:10103000210026052000EE00EF01A001A1016F08AC
:10104000A3006E088031F3208831031D2D28210074
:101050000330A70020008831312821000430A70088
:1010600020002030210026052000EE00EF01640062
:101070006E086F048831031941280130FE00883161
:101080004228FE014030210026052000EE00EF013D
:1010900064006E086F048831031954282100013060
:1010A000A2002000883157282100A20120006400FE
:1010B0007E08883103195E288931D1218931AA211E
:1010C00021000530A5002000873184272100260853
:1010D0002000EC00ED0121000630A5002000873142
:1010E00084270330210026052000EE00EF016E0862
:1010F000A0006F08A10008308031E620EE00210832
:10110000EF006E08EC046F08ED0440302100260566
:101110002000EE00EF01A001A1016F08A3006E08FE
:101120008031F3208831031D9B2821000130A90064
:1011300020008831B4288030210026052000EE00F0
:10114000EF01A001A1016F08A3006E088031F32018
:101150008831031DB12821000230A9002000883108
:10116000B4282100A90120006A08A0006B08A10092
:101170006D08A3006C088031EB208931031D6B29B9
:101180006C08EA006D08EB00F80164000530780295
:101190008931031869297808A600A7010230A20046
:1011A000A30181312121EE002508EF000330A000CA
:1011B000A1016E088031E620EE002108EF006E08E4
:1011C000A0006F08A100A30100308031EB20EE00E9
:1011D0006E086C05EE00EF0164006E086F04883144
:1011E0000319FC2878085F3E840000308501853DA6
:1011F00005308000893166297808A600A7010230F1
:10120000A200A30181312121EE002508EF00033067
:10121000A000A1016E088031E620EE002108EF0059
:101220006E08A0006F08A100A30101308031EB20FF
:10123000EE006E086C05EE00EF0164006E086F04AE
:10124000893103192D2978085F3E8400003085011B
:10125000853D09308000893166297808A600A701FC
:101260000230A200A30181312121EE002508EF0008
:101270000330A000A1016E088031E620EE002108B5
:10128000EF006E08A0006F08A100A30102308031BA
:10129000EB20EE006E086C05EE00EF0164006E08B6
:1012A0006F04893103195E2978085F3E840000309D
:1012B0008501853D063080008931662978085F3ECA
:1012C000840000308501853D0A308000F80A031D46
:1012D0005C330130F40064007D082100290289316B
:1012E000200003197929210029082000FD00013080
:1012F000F400080020302100A40420008931C42912
:10130000DF30EE00FF30EF006E082100A405200062
:101310008931C4297F30EE00FF30EF00210024081E
:101320002000EE05EF0140306E042100A4002000F3
:101330008931C429C0302100A40420008931C42986
:10134000BF30EE00FF30EF006E082100A405200042
:101350008931C429F030EE00FF30EF00210024086D
:101360002000EE05EF01210027085F3E84000030D9
:101370008501853D00082000F00070086E04210002
:10138000A40020008931C42921000730A5002408C9
:10139000A60020008931EB292100A6012000893117
:1013A000E5290830A0002100270820008031E62030
:1013B0002100A60020008931E5290830A000780826
:1013C0008031E6202100A600200021000430A50085
:1013D00020008931EB292100250820008D001030E4
:1013E0002100250420008D002100260820008C000B
:1013F00091012100250820008D00FF309100080098
:041400006300FE3354
:020000040001F9
:02000E009C173D
:080010003F378B07FF1FFF3F84
:00000001FF
