:020000040000FA
:10000000B2015F290408A0002A0884002B0885009B
:1000100020088000AA0A03145C29B216B21EB2128C
:10002000B2191628B215672003184E280830A3000D
:100030007C20A20DA30B1828B21E5B208A208420EE
:10004000B21A4E205320220803105C293217321FA7
:100050003213860029080310031D3128321B4E2855
:100060005C291600392003185C29A9032A28B21636
:10007000B21EB21232194128FE39B30032150310F4
:100080005C29321A4928A6003216672003184E2828
:1000900026086F2003184E28B21E5C295B208A2098
:1000A00032113212B2113808850036088400053149
:1000B0003408800463283808850036088400340931
:1000C0008005053180056428652866285C29532051
:1000D0008A205E215B2084203308B2190138A200F7
:1000E0000830A300A20D03185320031C5B208A20B4
:1000F0008420A30B722853208A20380885003608F4
:10010000840034080005FF3E390885003708840064
:1001100035096028390885003708840035085928D2
:10012000A400A90803195C2924085721A9039228CF
:10013000B31329080319B3170430A800250EA5200E
:100140002508A520240EA52024080F39F63E031803
:10015000073E0A3EC828B31329080319B317053010
:10016000A8002730A3001030C1200330A300E830DE
:10017000C120A3016430C120A3010A30C12024089A
:10018000C828A2002508A1002408A0002B212008CF
:10019000A000A8030319B31329080319D2282802C1
:1001A000031808002008031DB313B31B0800303EDA
:1001B000572980010131090BFC335C29A301A200FE
:1001C000FF30A207031CA307031C5C290330A10016
:1001D000E730EC20E028A101A0000000023064001C
:1001E0000310A03B0301A13B0318EF280800A03532
:1001F000A10DFF3E0318F72820085C29A136A00CAA
:10020000FF3E0318FE2820085C29A20002301029B6
:10021000A101A301A20003301029A301A20005300F
:10022000A80023082102031D1729220820020430F8
:1002300003180130031902302805031DFF305C2923
:100240000038031DFF300405031DFF305C29040442
:10025000031DFF305C29A501A4011030A600210D6B
:10026000A40DA50D2208A4022308A53B03183D29CF
:100270002208A4072308A53D0310A00DA10DA60B7D
:100280002F2920085C291030A800A101A001A70C8B
:10029000A60C031C4F292208A0072308A13DA10C8E
:1002A000A00CA50CA40CA80B472924085C298400E9
:1002B00031088A00300882002000640008002030E5
:1002C0008400850160308031D920A0308400850110
:1002D00050308031D92020308400013085005030EA
:1002E0008031D920A0308400013085005030803129
:1002F000D920203084000230850050308031D92050
:10030000A03084000230850050308031D920203068
:1003100084000330850050308031D920A030840023
:100320000330850050308031D920203084000430E3
:10033000850050308031D920A03084000430850001
:1003400050308031D9202030840005308500503075
:100350008031D920A03084000530850050308031B4
:10036000D920203084000630850050308031D920DB
:1003700031008D013E00B801C301CE012000FF30E5
:10038000910092010C3093008631242E0830210018
:1003900056042000FA00083021005604CE00003038
:1003A000CF0004304E042000FB000830210056042A
:1003B0002000FD000E30B6000030B8000230B4005E
:1003C0000E30B7000030B9000130B5004E3080313A
:1003D00039200330A90087017A30803126200A3085
:1003E0008031DE200800F03021005605CE00CF011C
:1003F00008304E042000FA00F03021005605CE00EF
:10040000CF010830CE040030CF0404304E04200069
:10041000FB00F03021005605CE00CF0108304E041D
:100420002000FC000F3021005605CE00CF014E0801
:100430002000A00021004F082000A10004308031DE
:10044000F9202100CE00200021082100CF00083033
:100450004E042000FD000F3021005605CE00CF01D4
:100460004E082000A00021004F082000A100043009
:100470008031F9202100CE00200021082100CF008A
:100480000830CE040030CF0404304E042000FE00BB
:100490000F3021005605CE00CF014E082000A000ED
:1004A00021004F082000A10004308031F9202100F4
:1004B000CE00200021082100CF0008304E0420008B
:1004C000FF000E30B6000030B8000230B4000E302D
:1004D000B7000030B9000130B5004E30803139200E
:1004E0000630A90087017A30803126200A30803119
:1004F000DE200800A030AA00AB0121005508143C02
:10050000CE000030031CFF3ECF004E082000A900A3
:100510000230B000B10120308031902000308031B5
:1005200003202100DB0120006400143021005B0265
:10053000833120000318722B210057082000A000EF
:100540000430813108212100CE0055082000A00090
:100550001430813108212100D0004E088400500859
:100560002000813127212100D000D10064005008F3
:100570005104823120000319BF2A8331722B2100DC
:100580005B08A03E840000308501853D0008D60050
:1005900064005608003C82312000031DD12A8331BB
:1005A000722BF03021005605CE00CF010830CE046A
:1005B0000030CF0401304E042000FA00F03021005A
:1005C0005605CE00CF010830CE040030CF040130F4
:1005D000CE040030CF0404304E042000FB00F03085
:1005E00021005605CE00CF010830CE040030CF04E4
:1005F00001304E042000FC000F3021005605CE00D3
:10060000CF014E082000A00021004F082000A100CB
:1006100004308031F9202100CE0020002108210083
:10062000CF000830CE040030CF0401304E0420004B
:10063000FD000F3021005605CE00CF014E082000EE
:10064000A00021004F082000A10004308031F920D3
:100650002100CE00200021082100CF000830CE0468
:100660000030CF040130CE040030CF0404304E04FB
:100670002000FE000F3021005605CE00CF014E08AD
:100680002000A00021004F082000A100043080318C
:10069000F9202100CE00200021082100CF000830E1
:1006A000CE040030CF0401304E042000FF000E3095
:1006B000B6000030B8000230B4000E30B700003091
:1006C000B9000130B5004E30803139200630A90024
:1006D00087017A30803126202100D50ADB0A2000EC
:1006E000031D2233080021000130D6002000813193
:1006F000F329210057082000A0000430813108218F
:100700002100CE0055082000A000143081310821BE
:100710002100D0004E08840050082000813127219C
:100720002100D000D1006400500851048331200022
:1007300003199B2B080021005708C43E8400003099
:100740008501853D0008CE0080304E07CE00CF01E8
:10075000CF0D4E085507D60020008131F329210026
:100760000130D700D50120008331792382319122D5
:1007700082317A220730A300D0308031DF20080098
:10078000C430AA00AB0100308031032040308031FA
:1007900003201430803103205430803103200E3088
:1007A000B6000030B8000230B4000E30B7000030A0
:1007B000B9000130B5004E30803139200030803131
:1007C000372064308031DE2021003030D600200018
:1007D0008131C6218131C6218131C62121002030DD
:1007E000D60020008131C62121002830D60020000B
:1007F0008131F32121002830D60020008131F321FE
:1008000021000830D60020008131F3212100013081
:10081000D60020008131F32121000630D6002000CF
:100820008131F32121002830D60020008131F321CD
:1008300021000F30D60020008131F32154330E30D7
:10084000B6000030B8000230B4000E30B7000030FF
:10085000B9000130B500A03080313920843103184F
:100860008A2C210049082000803139208431031866
:100870008A2C210048082000803137208431031859
:100880008A2C0E30B6000030B8000230B4000E30B2
:10089000B7000030B9000130B500A03080313920F8
:1008A000843103188A2C80310D20843103188A2C5E
:1008B0002100DA00200008000E30B6000030B80039
:1008C0000230B4000E30B7000030B9000130B5007E
:1008D000A03080313920843103188A2C2100490846
:1008E000200080313920843103188A2C21004808E7
:1008F000200080313920843103188A2C21005A08C5
:10090000200080313720843103188A2C0A3080314E
:10091000DE200800A030AA00AB0145308031032062
:1009200045308031032050308031032052308031F7
:1009300003204F30803103204D30803103202030A0
:100940008031032045308031032072308031032014
:100950007230803103206F3080310320723080315B
:1009600003200030803103208331AF2B2100D401DC
:100970002000833173232100D701D501200083316A
:100980007923A030AA00AB015330803103205730C7
:1009900080310320A901210069082000A400A501DD
:1009A0000230B000B1018031AB2020308031032013
:1009B00000308031032082319122640021005F08E1
:1009C000843120000319FB2CA030AA00AB014F306A
:1009D00080310320503080310320453080310320A6
:1009E0004E308031032020308031032000308031B0
:1009F00003208531102DA030AA00AB0120308031BA
:100A0000032020308031032020308031032020302B
:100A100080310320203080310320003080310320DA
:100A200082319122640021006B08013C8531200055
:100A3000031D2B2DA030AA00AB01553080310320BF
:100A4000703080310320203080310320003080312D
:100A500003208531532D640021006B08023C853151
:100A60002000031D442DA030AA00AB01443080318A
:100A700003205730803103204E3080310320003076
:100A8000803103208531532DA030AA00AB012030E6
:100A9000803103202030803103202030803103203A
:100AA00000308031032082319122640085312100A1
:100AB0008310621C831420008318802D8030210055
:100AC0006605CE00CF0164004E084F04853120003A
:100AD0000319752DA030AA00AB012D308031032001
:100AE00000308031032085317E2DA030AA00AB017B
:100AF0002B30803103200030803103208531892D57
:100B0000A030AA00AB0120308031032000308031BA
:100B10000320823191228A3154228A314A222100D3
:100B2000D5010130D700200083317923A030AA00FD
:100B3000AB014330803103207530803103207230A7
:100B400080310320723080310320653080310320F2
:100B50006E308031032074308031032020308031AA
:100B600003200230A900210059082000A400A5019B
:100B70000230B000B101803198203A30803103203A
:100B80000230A900210060082000A400A501023065
:100B9000B000B101803198200030803103208231D3
:100BA00091222100D5010230D70020008331792322
:100BB000A030AA00AB014430803103206530803181
:100BC000032073308031032069308031032072307C
:100BD0008031032065308031032064308031032070
:100BE0002030803103200230A90021006908B53E81
:100BF000840000308501853D0008CE004E082000AD
:100C0000A400A5010230B000B101803198203A3033
:100C1000803103200230A90021006908BA3E840017
:100C200000308501853D0008CE004E082000A4005C
:100C3000A5010230B000B101803198200030803130
:100C4000032082319122080064008E1DFD332100B3
:100C5000FF30CA00FF30CB00200020308D008331F0
:100C6000C0238C31EE248931F8212100DF30CE0001
:100C7000FF30CF006608CE05CF010F304E07E600EB
:100C800020008C31E6242100E901200064000530B9
:100C900021006902863120000318582E8C31F3247C
:100CA000FA308031DE202100E90A2000031DEE33F6
:100CB0002100F030CE00FF30CF006608CE05CF0116
:100CC00020304E04E60020008C31E6248C31EE24E6
:100CD0002100D8012000640005302100580286312F
:100CE00020000318AA2E210058082000A600A70102
:100CF0000230A200A301813143212100C80020005D
:100D000025082100C900200084311F247F302100E4
:100D10005A05CE00CF015808B53E84000030850149
:100D2000853D4E088000C80A0319C90A2000843195
:100D30001F247F3021005A05CE00CF015808BA3E4B
:100D4000840000308501853D4E088000D80A2000CF
:100D5000031DC13321000130D40020008A315F22FD
:100D60008731A327873193278C31FF24640021002A
:100D70005F08873120000319732F6400863121003A
:100D80008310621C831420008318C82E8931F82137
:100D9000640021006B08013C86312000031DDA2E1F
:100DA0008C31B2242100C030D20020008A310A22C6
:100DB0008731612F640021006B08023C86312000DE
:100DC000031DEC2E8C31C0242100C030D200200045
:100DD0008A310A228731612F640086312100831015
:100DE000621C831420008318F72E8931F8216400D7
:100DF00021006408003C87312000031D062F2100DC
:100E0000E21420008C31A8248731612F64008731DF
:100E100021008310E21C831420008318612F21001D
:100E2000E21020008A315422210069082000A60027
:100E3000A7010230A200A301813143212100C80093
:100E4000200025082100C9005908DA00200084315B
:100E50005C242100C80A0319C90A20008A314A22E9
:100E6000803021006605CE00CF0164004E084F049B
:100E7000873120000319472F063021006002CE0081
:100E8000CF010030CF3B7F304E05E0002000210035
:100E90006008DA00200084315C2421006908B53E36
:100EA000840000308501853D590880006908BA3EFC
:100EB000840000308501853D6008800020008C3171
:100EC000A2248A315F226400210054088731200067
:100ED00003196C2F8431B624640021005F08003CA4
:100EE0002000031D55338731A3278A315F228731C4
:100EF00093276400210058086902873120000319F4
:100F0000832F88315E20640021005408873120003F
:100F100003198C2F8431B624640021005F0820005F
:100F20000319E33323338A31542221005936CE008A
:100F3000CF014E083A3E840000304F3D8500000846
:100F4000D800200008002100EC012000640040309F
:100F500021006C02873120000318BB2F21006C0890
:100F60003A3E840000308501853D05308000EC0A62
:100F70002000031DEB332100D80120006400053060
:100F80002100580288312000031814282100580835
:100F9000B53E840000308501853D0008CE000C3050
:100FA0004E02CE00CF010030CF3B7F30CE05003067
:100FB000CF054F0C4E0CEC00200021006C083A3E8F
:100FC000840000308501853D5808800001306C07A1
:100FD000CE00CF01CF0D3F304E05EC005808B53E96
:100FE000840000308501853D0008CE000C304E079E
:100FF000CE00CF01CF0D7F30CE050030CF05CF36EC
:10100000CE0C4E082000A00021004F082000A100B7
:1010100021006C08200081310D21031DCE332100F9
:10102000D80A2000031DAA332100EC01200064002F
:10103000403021006C028831200003185D28210017
:101040006C083A3E840000308501853D0008CE00E2
:1010500064004E08053C88312000031D58280130EB
:1010600021006D07CE00CF01CF0D3F304E05ED00C2
:101070006D083A3E840000308501853D0008CE00B1
:1010800064004E08053C20000319E93321006D0877
:101090003A3E840000308501853D0008CE006C0892
:1010A0003A3E840000308501853D4E0880002000D6
:1010B0002100EC0A2000031DBA330800640021005F
:1010C0006908580288312000031883282100580835
:1010D0006902CE00CF01031CCF034E082000A00000
:1010E00021004F082000A100A301033081310A2113
:1010F0008831031D7F288C31B224883181288C31BE
:10110000C02488319E28210069085802CE00CF01F2
:10111000031CCF034E082000A00021004F08200030
:10112000A100A301033081310A218831031D9C28CD
:101130008C31C02488319E288C31B2242100C430E7
:10114000D2002E008C1620008A315422210059082A
:10115000DE00E101200021005208903C031DFF3019
:10116000CE004E0884002E0000308C1A0130200082
:10117000813120212100CE00CF0064004E084F04B1
:10118000883120000319CC2804302100D20220002D
:101190008A310A228931E82121005208903C031D3E
:1011A000FF30FF3ACE004E0884002E0000308C1A2B
:1011B00001302000813120212100CE00CF006400C9
:1011C0004E084F04893120000319072987319327DE
:1011D000640021005E085902883120000319F728B5
:1011E0002100E1015908DE00200089310529210094
:1011F000E10A64008030610289312000031C052966
:101200008931F8218931F32108008931E8218C31B5
:10121000FF2421006908B53E840000308501853D2A
:101220000008CE0059084E02EA0080306A05CE0060
:10123000CF0164004E084F0489312000031928298A
:1012400021006A09CE00FF30CF004E0AEA002000DC
:1012500064000C3021006A02200003187C338931BD
:10126000F3212E008C1620008A314A2221006008CA
:10127000DE00E101200021005208C03C031DFF30C8
:10128000CE004E0884002E0000308C1A0130200061
:10129000813120212100CE00CF0064004E084F0490
:1012A0008931200003195C2904302100D207200075
:1012B0008A310A228931E8218A314A2221005208E2
:1012C000C03C031DFF30FF3ACE004E0884002E00C4
:1012D00000308C1A01302000813120212100CE0005
:1012E000CF0064004E084F0489312000031997296C
:1012F000640021005E0860028931200003198729FB
:101300002100E1016008DE002000893195292100DB
:10131000E10A64008030610289312000031C9529B4
:101320008931F8218931F32108008931E8218030A1
:1013300021006605CE00CF0164004E084F048931BC
:1013400020000319BB2921006908BA3E840000303F
:101350008501853D0008CE0006304E07CE00CF0146
:10136000CF0D7F30CE050030CF054E086002EA0079
:1013700020008931C82921006908BA3E8400003064
:101380008501853D0008CE004E086002EA0020007D
:10139000803021006A05CE00CF0164004E084F0462
:1013A000893120000319DC2921006A09CE00FF30B1
:1013B000CF004E0AEA0020006400023021006A02D9
:1013C0002000031858338931F8298931F3210800A6
:1013D000FF309D009C016A309F002E008C1220007F
:1013E00080309E0008009E012E008C122000080014
:1013F0002100FF30D20020008A310A228C31C6241D
:101400008A314A228A31542221000130D4006210EC
:101410002000080021000A30E7000330E800200027
:101420008D310F2521000930E7005208E800200027
:101430008D310F2521000D30E7000130E80020003C
:101440008D310F2550308031EB206400210052088F
:10145000FF3C8A3120000319302A21006214200049
:10146000080020302100670420008D00203021007A
:101470006704CE000030CF0010304E0420008D00F5
:1014800001308031EB200C082100E80067082000C3
:101490008D0008002100E70120008A31312221005F
:1014A0006808E0002000080021000130E70020006B
:1014B0008A31312221006808D9002000080021006B
:1014C0000230E70020008A313122640021006808E0
:1014D00063028A3120000319902A21006808E30082
:1014E000D301200001308031DE208A3131226400B6
:1014F0002100630868028A3120000319862A21002E
:101500006808E300D30120008A31892A2100D30A28
:101510002000640021005308323C2000031DE23308
:101520006400210068085C028B31200003193C2B09
:1015300021006808DC000130D40001306805CE00CD
:10154000CF012000A001A10121004F082000A3002D
:1015500021004E08200081310E218A31031DB52A59
:101560002100E90120008B31072B023021006805A2
:10157000CE00CF012000A001A10121004F082000D2
:10158000A30021004E08200081310E218A31031D65
:10159000CF2A21000130E90020008B31072B0430D5
:1015A00021006805CE00CF012000A001A10121008B
:1015B0004F082000A30021004E08200081310E2199
:1015C0008A31031DE92A21000230E90020008B3115
:1015D000072B083021006805CE00CF012000A001B4
:1015E000A10121004F082000A30021004E08200087
:1015F00081310E218B31031D032B21000330E900C3
:1016000020008B31072B21000430E900200020301E
:1016100021006805CE00CF0164004E084F048B31D5
:1016200020000319192B21000130DF0020008B312D
:101630001C2B2100DF012000403021006805CE0076
:10164000CF0164004E084F048B31200003192E2B6C
:1016500021000130E40020008B31312B2100E40116
:101660002000640021005F088B31200003193A2B11
:101670008C31F3248C31D02421000530E700200088
:101680008A31312221006808CC00CD010630E70004
:1016900020008A313122033021006805CE00CF01BD
:1016A0004E082000A00021004F082000A1000830B3
:1016B0008031F9202100CE00200021082100CF0038
:1016C0004E08CC044F08CD0440306805CE00CF0151
:1016D0002000A001A10121004F082000A30021004B
:1016E0004E08200081310E218B31031D7D2B2100FE
:1016F0000130EB0020008B319A2B803021006805EF
:10170000CE00CF012000A001A10121004F08200040
:10171000A30021004E08200081310E218B31031DD2
:10172000972B21000230EB0020008B319A2B2100F7
:10173000EB01200021004A082000A00021004B08F6
:101740002000A10021004D082000A30021004C082A
:101750002000813105218C31031D932C21004C0880
:10176000CA004D08CB00D8012000640005302100DC
:1017700058028C3120000318912C210058082000B9
:10178000A600A7010230A200A3018131432121005C
:10179000CE00200025082100CF004C082000A0002A
:1017A00021004D082000A10021004E0820008131B9
:1017B00000212100CE00200021082100CF000330AD
:1017C000CE050030CF052000A001A10121004F0867
:1017D0002000A30021004E08200081310E218B3112
:1017E000031DFE2B21005808BF3E840000308501F8
:1017F000853D0530800020008C318C2C210058085C
:101800002000A600A7010230A200A30181314321DC
:101810002100CE00200025082100CF004C08200028
:10182000A00021004D082000A10021004E0820004A
:10183000813100212100CE00200021082100CF00AD
:101840000330CE050030CF0520000130A000A101FB
:1018500021004F082000A30021004E082000813104
:101860000E218C31031D402C21005808BF3E8400FE
:1018700000308501853D0930800020008C318C2CA2
:10188000210058082000A600A7010230A200A301F1
:10189000813143212100CE00200025082100CF0006
:1018A0004C082000A00021004D082000A1002100CC
:1018B0004E082000813100212100CE0020002108A7
:1018C0002100CF000330CE050030CF0520000230CC
:1018D000A000A10121004F082000A30021004E0814
:1018E000200081310E218C31031D822C21005808EB
:1018F000BF3E840000308501853D06308000200019
:101900008C318C2C21005808BF3E840000308501AA
:10191000853D0A30800020002100D80A2000031DE8
:1019200024338C31D024640021005D086B028C319B
:1019300020000319A12C21006B08DD000130D40028
:101940002000080020302100E60420008C31E62C25
:101950002100DF30CE00FF30CF004E08E60520002A
:101960008C31E62C21007F30CE00FF30CF0066089E
:10197000CE05CF0140304E04E60020008C31E62C2D
:10198000C0302100E60420008C31E62C2100BF305D
:10199000CE00FF30CF004E08E60520008C31E62C4B
:1019A0002100F030CE00FF30CF006608CE05CF0119
:1019B0006908BF3E840000308501853D0008D000E5
:1019C00050084E04E60020008C31E62C2100073040
:1019D000E7006608E80020008D310F2D2100E801A6
:1019E00020008D31092D0830A00021006908200059
:1019F0008031F9202100E80020008D31092D0830C8
:101A0000A0002100580820008031F9202100E800C2
:101A1000200021000430E70020008D310F2D21002F
:101A2000670820008D0010302100670420008D0021
:101A30002100680820008C00910121006708200027
:0C1A40008D00FF30910008006300FE33B1
:020000040001F9
:02000E009C173D
:080010003F378B07FF1FFF3F84
:00000001FF
