:020000040000FA
:10000000B20140290408A0002A0884002B088500BA
:1000100020088000AA0A03143D29B216B21EB212AB
:10002000B2191628B215672003184E280830A3000D
:100030007C20A20DA30B1828B21E5B208A208420EE
:10004000B21A4E205320220803103D293217321FC6
:100050003213860029080310031D3128321B4E2855
:100060003D291600392003183D29A9032A28B21674
:10007000B21EB21232194128FE39B30032150310F4
:100080003D29321A4928A6003216672003184E2847
:1000900026086F2003184E28B21E3D295B208A20B7
:1000A00032113212B2113808850036088400063148
:1000B0003408800463283808850036088400340931
:1000C0008005063180056428652866283D2953206F
:1000D0008A203F215B2084203308B2190138A20016
:1000E0000830A300A20D03185320031C5B208A20B4
:1000F0008420A30B722853208A20380885003608F4
:10010000840034080005FF3E390885003708840064
:1001100035096028390885003708840035085928D2
:10012000A400A90803193D2924083821A90392280D
:10013000B31329080319B3170530A8002730A3000B
:100140001030AE200330A300E830AE20A3016430AD
:10015000AE20A3010A30AE202408B528A20025084D
:10016000A1002408A0000C212008A000A803031966
:10017000B31329080319BF28280203180800200810
:10018000031DB313B31B0800303E38298001013131
:10019000090BFC333D29A301A200FF30A207031C79
:1001A000A307031C3D290330A100E730D920CD2847
:1001B000A101A0000000023064000310A03B030175
:1001C000A13B0318DC280800A035A10DFF3E031851
:1001D000E42820083D29A2000230F828A101A3014B
:1001E000A2000330F828A2000130F828A200053050
:1001F000A80023082102031DFF2822082002043042
:1002000003180130031902302805031DFF303D2972
:100210000404031DFF303D29A501A4011030A600F0
:10022000210DA40DA50D2208A4022308A53B031847
:100230001E292208A4072308A53D0310A00DA10D27
:10024000A60B102920083D291030A800A101A0010B
:10025000A70CA60C031C30292208A0072308A13DE7
:10026000A10CA00CA50CA40CA80B282924083D293E
:10027000840031088A0030088200400164000800D0
:1002800020308400850160308031C620A030840099
:10029000850150308031C620203084000130850037
:1002A00050308031C620A0308400013085005030AD
:1002B0008031C620203084000230850050308031EB
:1002C000C620A03084000230850050308031C62026
:1002D000203084000330850050308031C620A030AB
:1002E00084000330850050308031C62020308400E7
:1002F0000430850050308031C620A03084000430A6
:10030000850050308031C6202030840005308500C3
:1003100050308031C620A030840005308500503038
:100320008031C62020308400063085005030803176
:10033000C62051018D017E01B801C301CE014001EB
:10034000FF3092009301183094007E01093099002B
:100350000A309A000B309B001430A4004B01FF3090
:100360009D009C016A309F004E018C129616400140
:100370008131C1294B0180309E000B178B17400142
:10038000080084317E2C08306304CB0008306304FD
:10039000DC000030DD0004305C04CC000830630475
:1003A000CE000E30B6000030B8000230B4000E307F
:1003B000B7000030B9000130B5004E30803139202F
:1003C0000330A90087014B30803126200A3080316C
:1003D000CB200800F0306305DC00DD0108305C0450
:1003E000CB00F0306305DC00DD010830DC040030B8
:1003F000DD0404305C04CC00F0306305DC00DD017A
:1004000008305C04CD000F306305DC00DD015C08C2
:10041000A0005D08A10004308031E620DC00210846
:10042000DD0008305C04CE000F306305DC00DD0128
:100430005C08A0005D08A10004308031E620DC00EB
:100440002108DD000830DC040030DD0404305C04E9
:10045000CF000F306305DC00DD015C08A0005D0803
:10046000A10004308031E620DC002108DD000830E6
:100470005C04D0000E30B6000030B8000230B4008A
:100480000E30B7000030B9000130B5004E30803179
:1004900039200630A90087014B30803126200A30F0
:1004A0008031CB2008003A30AA00AB016208103C32
:1004B000DC000030031CFF3EDD005C08A9000230B8
:1004C000B000B10120308031902000308031032015
:1004D000E801640010306802833103181B2B6408A4
:1004E000A00002308031EE20DC006208A000103055
:1004F0008031EE20DE005C0884005E088131082136
:10050000DE00DF0064005E085F04823103198A2A7E
:1005100083311B2B68083A3E840000308501853DFD
:100520000008E30064006308003C8231031D9A2A3E
:1005300083311B2BF0306305DC00DD010830DC0467
:100540000030DD0401305C04CB00F0306305DC00DA
:10055000DD010830DC040030DD040130DC04003053
:10056000DD0404305C04CC00F0306305DC00DD0108
:100570000830DC040030DD0401305C04CD000F30B5
:100580006305DC00DD015C08A0005D08A10004300B
:100590008031E620DC002108DD000830DC0400307A
:1005A000DD0401305C04CE000F306305DC00DD01AA
:1005B0005C08A0005D08A10004308031E620DC006A
:1005C0002108DD000830DC040030DD040130DC04EB
:1005D0000030DD0404305C04CF000F306305DC0024
:1005E000DD015C08A0005D08A10004308031E62038
:1005F000DC002108DD000830DC040030DD040130BF
:100600005C04D0000E30B6000030B8000230B400F8
:100610000E30B7000030B9000130B5004E308031E7
:1006200039200630A90087014B3080312620E20AAC
:10063000E80A031D4E3308000130E3008131EA2946
:100640006408A00002308031EE20DC006208A000C7
:1006500010308031EE20DE005C0884005E088131BD
:100660000821DE00DF0064005E085F0483310319A7
:100670003A2B08006408563E840000308501853D11
:100680000008DC0080305C07DC00DD01DD0D5C086B
:100690006207E3008131EA290130E400E20183319D
:1006A000202382316822823153220730A300D030C8
:1006B0008031CC2008005630AA00AB0100308031D8
:1006C00003204030803103200E30B6000030B800E7
:1006D0000230B4000E30B7000030B9000130B50070
:1006E0004E30803139200030803137206430803105
:1006F000CB203030E3008131C3218131C3218131EE
:10070000C3212030E3008131C3212830E30081314F
:10071000EA212830E3008131EA210830E300813109
:10072000EA210130E3008131EA210630E300813122
:10073000EA212830E3008131EA210F30E3008131E2
:10074000EA217A330E30B6000030B8000230B4002F
:100750000E30B7000030B9000130B500A030803154
:10076000392084310318012C590880313920843113
:100770000318012C58088031372084310318012CCC
:100780000E30B6000030B8000230B4000E30B700B2
:100790000030B9000130B500A030803139208431FB
:1007A0000318012C80310D2084310318012CE7003F
:1007B00008000E30B6000030B8000230B4000E3031
:1007C000B7000030B9000130B500A03080313920C9
:1007D00084310318012C59088031392084310318E1
:1007E000012C58088031392084310318012C670806
:1007F0008031372084310318012C0A308031CB201E
:1008000008003A30AA00AB01453080310320453062
:10081000803103205030803103205230803103205A
:100820004F30803103204D30803103202030803123
:100830000320453080310320723080310320723034
:10084000803103206F3080310320723080310320EB
:10085000003080310320203383311C23E401E20186
:10086000833120233A30AA00AB0144308031032089
:100870005230803103205530803103204D3080319B
:100880000320203080310320203080310320A90153
:100890006608A400A5010230B000B10180319820A3
:1008A00000308031032082316822E2010130E4000F
:1008B000833120233A30AA00AB014D308031032030
:1008C0004F30803103205430803103204F3080314D
:1008D0000320523080310320203080310320A901D1
:1008E0006908A400A5010230B000B1018031982050
:1008F00000308031032082316822080064008E1DA0
:10090000FD3320308D0083315B2387317127033025
:10091000F1006D09F2008731C9270430EF008731FB
:10092000C3272030F0008731BD27FF30E100873139
:100930002C27DF30DC00FF30DD007008DC05DD0136
:100940000F305C07F0008731BD2707306F05DC00F2
:10095000DD0108305C04EF008731C327FA308031B5
:10096000CB2007306F05DC00DD01F8306F05DE00BD
:10097000DF01DE35DF0D5C085E04EF00F8306F0547
:10098000DC00DD01A001A1015D08A3005C0880314D
:10099000F620031DE133F030DC00FF30DD0070088D
:1009A000DC05DD0120305C04F0008731BD27073015
:1009B000EF058731C327E501640005306502853105
:1009C0000318062D6508D800D9018331A2236508D4
:1009D000513E840000308501853D67088000650830
:1009E000513E840000308501853D0008DC007F30E9
:1009F0005C05DC00DD016508513E840000308501A6
:100A0000853D5C088000E50A031DD63386314C26FF
:100A100084312C248731712701306D05DC00DD0124
:100A2000A001A1015D08A3005C088031F62085319A
:100A3000031D1D2DF3018531552D02306D05DC00A0
:100A4000DD01A001A1015D08A3005C088031F62052
:100A50008531031D2F2D0130F3008531552D0430D4
:100A60006D05DC00DD01A001A1015D08A3005C08AB
:100A70008031F6208531031D412D0230F300853190
:100A8000552D08306D05DC00DD01A001A1015D08D8
:100A9000A3005C088031F6208531031D532D0330FF
:100AA000F3008531552D0430F30020306D05DC0056
:100AB000DD0164005C085D0485310319BA2D8731BE
:100AC000822764007408013C8531031D6F2D873136
:100AD0001C27C030E10087312C278531B82D6400F8
:100AE0007408023C8531031D7D2D87312827C030D5
:100AF000E10087312C278531B82D640085316B18D2
:100B0000832D87310D2740306D05DC00DD01A0010C
:100B1000A1015D08A3005C088031F6208531031D2A
:100B20009C2DEB14DF30DC00FF30DD005C08F005AD
:100B30008731BD278531B82D64008531EB1CB82D78
:100B4000EB1087316A277308D800D9016608E700DF
:100B50008331D9237308E5006508513E84000030D5
:100B60008501853D660880002030F0048731BD276F
:100B700086314A2E8731822787316A27F030DC00A0
:100B8000FF30DD005C08F0056508A600A701023013
:100B9000A200A30181312421DC002508DD00013001
:100BA000A000A1015C088031E620DC002108DD0006
:100BB0005C08A0005D08A100A30100308031EB209B
:100BC000DC005C085A05DC00DD0164005C085D04A3
:100BD00085310319EF2D0430F0048531F12D0830F3
:100BE000F0046508A600A7010230A200A30181312C
:100BF0002421DC002508DD000230A000A1015C08F2
:100C00008031E620DC002108DD005C08A0005D08E2
:100C1000A100A30100308031EB20DC005C085A0504
:100C2000DC00DD0164005C085D04863103191C2EC4
:100C30000130F00486311E2E0230F0048731BD27CA
:100C400007306F05DC00DD010830A000A101650858
:100C50008031E620DE002108DF005C085E04EF0042
:100C60008731C327640086316B1C422E86314C26A7
:100C70006400650873028631031D402E8631C92643
:100C800086314A2E640065087302863103194A2EA4
:100C90008631772685310A2DE5016400053065022D
:100CA00086310318742E6508513E8400003085019A
:100CB000853D0008DC0066085C02DC00DD01031CE9
:100CC000DD037F30DC050030DD055C08A0005D0839
:100CD000A100A30119308031F3208631031D712E4C
:100CE0000800E50A031DD9330430E5000800873108
:100CF00064276908EA0064007308650286310318F6
:100D00009A2E65087302DC00DD01031CDD035C081C
:100D1000A0005D08A100A30103308031F0208631DE
:100D2000031D962E87311C278631982E8731282760
:100D30008631B12E73086502DC00DD01031CDD0382
:100D40005C08A0005D08A100A30103308031F02001
:100D50008631031DAF2E873128278631B12E87318A
:100D60001C27C030E1006400603061028631031C42
:100D7000C82E87312C2764006108603C8631031936
:100D8000C42E08308031CB200130E1020318EB3350
:100D900008006030E1006400C03061028631031851
:100DA000DD2E0830E10787312C276400C030610256
:100DB00086310318DD2E8631FC26E0018731642759
:100DC000640069086A028631031DF12EE00A64009E
:100DD0006008023C8631031DF12E873109278731D7
:100DE0000D2F64004E0183108C1E83144001831864
:100DF000E53387310927CF334B01FF309D009C013C
:100E00006A309F004E018C124B0180309E004001E1
:100E100008004B019E0140010800FF30E1008731CE
:100E20002C273F30DC00FF30DD005C08F005873107
:100E3000BD2784312C2408007F30DC00FF30DD002A
:100E40007008DC05DD0140305C04F0008731BD2F07
:100E5000C030F0048731BD2FF830EF058731C3274C
:100E60000A30F1000330F2008731C9270930F10060
:100E70006108F2008731C9270D30F1000130F2001E
:100E80008731C92F50308031D82064006108FF3C81
:100E90008731031D4E2F6B1087314F2F6B140800C5
:100EA000FF309200203071048D00103071048D00ED
:100EB00001308031D8200C08F200EF30DC00FF3028
:100EC000DD005C088D050800F101873150277208AC
:100ED000E90008000130F100873150277208E60070
:100EE00008000230F100873150277208EC003230E0
:100EF0008031CB2087315027640072086C02031DBB
:100F0000F43308000530F100873150277208DA0009
:100F1000DB010630F1008731502703307205DC0019
:100F2000DD015C08A0005D08A10008308031E620EA
:100F3000DC002108DD005C08DA045D08DB044030D9
:100F40007205DC00DD0164005C085D048731031973
:100F5000AD2F0130F4008731BC2F80307205DC00EA
:100F6000DD0164005C085D0487310319BB2F02308A
:100F7000F4008731BC2FF40108000730F10070083D
:100F8000F2008731C92F0430F1006F08F200873179
:100F9000C92FDF30DC00FF30DD0071085C058D00FB
:100FA00010308D0472088C009201EF30DC00FF30AD
:100FB000DD005C088D05FF30920008006300FE3301
:020000040001F9
:02000E00883B2D
:080010007D37BF07FF1FFF3F12
:00000001FF
