:020000040000FA
:10000000732880010131090BFC3370285001F03056
:100010009B001E171E141C089A0A702889015001A3
:100020009C00F0309B001E171E158B138B1B152890
:1000300055309F00AA309F009E148B179E181E28D3
:100040001E119A0A7028A301A200FF30A207031C08
:10005000A307031C70280330A100E73031202528B6
:10006000A101A0000000023064000310A03B0301C6
:10007000A13B031834280800A035A10DFF3E03184A
:100080003C2820087028A20002304C28A20003302F
:100090004C28A301A2000530A80023082102031D5B
:1000A00053282208200204300318013003190230BB
:1000B0002805031DFF3070281030A800A101A00101
:1000C000A70CA60C031C68282208A0072308A13D42
:1000D000A10CA00CA50CA40CA80B60282408702867
:1000E00040016400080020308400850160308031C8
:1000F0000120A03084008501503080310120203063
:10010000840001308500503080310120A03084000F
:1001100001308500503080310120203084000230D1
:100120008500503080310120A030840002308500ED
:100130005030803101202030840003308500503061
:1001400080310120A03084000330850050308031A0
:10015000012020308400043085005030803101209F
:10016000A0308400043085005030803101202030E0
:10017000840005308500503080310120A03084009B
:100180000530850050308031012020308400063059
:10019000850050308031012051018D017E01B80170
:1001A000C301CE014001FF30920093017E0109306E
:1001B00099000A309A000B309B001430A4004B01C8
:1001C000FF309D009C016A309F004E018C129616F4
:1001D00040018031F2284B0180309E000B178B17B5
:1001E0004001080020308D008331CC230330CD0046
:1001F0004909CE00843124240430CB0084311E24EC
:100200002030CC0084311824FF30C0008331872394
:10021000DF30BC00FF30BD004C08BC05BD010F3015
:100220003C07CC008431182407304B05BC00BD01CD
:1002300008303C04CB0084311E24FA308031232066
:1002400007304B05BC00BD01F8304B05BE00BF01B7
:10025000BE35BF0D3C083E04CB00F8304B05BC005A
:10026000BD01A001A1013D08A3003C0880314A2046
:10027000031DE133F030BC00FF30BD004C08BC056D
:10028000BD0120303C04CC00843118240730CB055C
:1002900084311E2450019A01400180310620C300A0
:1002A000500101309A00400180310620C1008331A5
:1002B000CC2320304905BC00BD0164003C083D044E
:1002C00081310319D8298331DD2364005108013CB1
:1002D0008131031D732983317523C030C000833100
:1002E00087238131832964005108023C8131031D39
:1002F000812983318223C030C0008331872381313B
:1003000083298331692364008131C518D62983315B
:10031000CC2340304905BC00BD01A001A1013D082E
:10032000A3003C0880314A208131031DA2294515D4
:10033000DF30BC00FF30BD003C08CC058431182400
:100340008131D62964008131451DD629451183317B
:10035000BF2364008131451CB22947087F3CC3009C
:100360008131C02947087F3CBC000030031CFF3EA0
:10037000BD000630BC070030BD3D7F303C05C300EA
:100380008331C52348080C3CC10050019A0140014B
:10039000430880310F20500101309A00400141088C
:1003A00080310F202030CC04843118248231E22A9D
:1003B0008331DD238331C52348084107BC00BD01DB
:1003C000BD0D7F303C05C20064001A30420281310D
:1003D0000318ED29C20182310D2A64003330420234
:1003E00081310318F7290130C20082310D2A6400DF
:1003F0004D30420282310318012A0230C20082319C
:100400000D2A640066304202823103180B2A033041
:10041000C20082310D2A0430C200F030BC00FF302F
:10042000BD003C08CC054208A600A7010230A2008E
:10043000A30180315C20BC002508BD000130A00074
:10044000A1013C0880313E20BC002108BD003C08D1
:10045000A0003D08A100A301003080314320BC0072
:100460003C083A05BC00BD0164003C083D048231F3
:1004700003193E2A0430CC048231402A0830CC04CF
:100480004208A600A7010230A200A30180315C202F
:10049000BC002508BD000230A000A1013C0880314D
:1004A0003E20BC002108BD003C08A0003D08A10082
:1004B000A301003080314320BC003C083A05BC0059
:1004C000BD0164003C083D04823103196B2A0130F0
:1004D000CC0482316D2A0230CC04843118240730D8
:1004E0004B05BC00BD010830A000A10142088031CD
:1004F0003E20BE002108BF003C083E04CB008431F2
:100500001E248331CC2301304905BC00BD01A0016C
:10051000A1013D08A3003C0880314A208231031D1F
:10052000942ACF018231CC2A02304905BC00BD019A
:10053000A001A1013D08A3003C0880314A2082317E
:10054000031DA62A0130CF008231CC2A0430490590
:10055000BC00BD01A001A1013D08A3003C08803101
:100560004A208231031DB82A0230CF008231CC2AC2
:1005700008304905BC00BD01A001A1013D08A30050
:100580003C0880314A208231031DCA2A0330CF0043
:100590008231CC2A0430CF0064008231C51CDA2AB3
:1005A000640042084F028231031DD82A833132236E
:1005B0008231E22A640042084F0282310319E22AA2
:1005C0008231E4228131572964004F08420283318D
:1005D0000318032B42084F02BC00BD01031CBD03DE
:1005E0003C08A0003D08A100A30103308031462053
:1005F0008231031DFF2A833175238331012B83311F
:10060000822383311A2B4F084202BC00BD01031C18
:10061000BD033C08A0003D08A100A30103308031C8
:1006200046208331031D182B8331822383311A2BFB
:1006300083317523C030C0006400603040028331D4
:10064000031C312B8331872364004008603C8331D5
:1006500003192D2B0830803123200130C0020318EC
:10066000EB33080064008331451C3A2B7F30C40013
:1006700083313C2B0530C4006030C0006400C130C1
:10068000400283310318692B83318723D0018331E2
:10069000BF2347084307BC00BD01BD0D7F30BC052B
:1006A0000030BD053C08A0003D08A1004408803191
:1006B00049208331031D652BD00A64005008023C99
:1006C0008331031D652B8331692B0830C007031C60
:1006D000D533FF30C000833187233F30BC00FF306B
:1006E000BD003C08CC058431182C45147F30BC007B
:1006F000FF30BD004C08BC05BD0140303C04CC00BF
:100700008431182C4510C030CC048431182CF830BA
:10071000CB0584311E240A30CD000330CE00843155
:1007200024240930CD004008CE00843124240D302B
:10073000CD000130CE008431242C50308031302067
:1007400064004008FF3C8331031DA92BC510833191
:10075000AA2BC5140800FF30920020304D048D00F4
:1007600010304D048D000130803130200C08CE0057
:10077000EF30BC00FF30BD003C088D050800CD0106
:100780008331AB234E08C70008000130CD00833110
:10079000AB234E08C80008000230CD008331AB23E4
:1007A0004E08C6003230803123208331AB236400F1
:1007B0004E084602031DF43308000530CD00833196
:1007C000AB234E08BA00BB010630CD008331AB230A
:1007D00003304E05BC00BD013C08A0003D08A1004F
:1007E000083080313E20BC002108BD003C08BA041E
:1007F0003D08BB0440304E05BC00BD0164003C0810
:100800003D0484310319082C0130D1008431172CA8
:1008100080304E05BC00BD0164003C083D048431BD
:100820000319162C0230D1008431172CD101080095
:100830000730CD004C08CE008431242C0430CD008C
:100840004B08CE008431242CDF30BC00FF30BD00CB
:100850004D083C058D0010308D044E088C0092012F
:10086000EF30BC00FF30BD003C088D05FF3092002A
:0608700008006300FE33E6
:020000040001F9
:02000E00883B2D
:080010007D37BF07FF1FFF3F12
:00000001FF
