:020000040000FA
:10000000752880010131090BFC3372285001F03052
:100010009B001E171E141C089A0A722889015001A1
:100020009C00F0309B001E171E158B138B1B152890
:1000300055309F00AA309F009E148B179E181E28D3
:100040001E119A0A7228A301A200FF30A207031C06
:10005000A307031C72280330A100E73031202528B4
:10006000A101A0000000023064000310A03B0301C6
:10007000A13B031834280800A035A10DFF3E03184A
:100080003C2820087228A20002304E28A20003302B
:100090004E28A20001304E28A2000530A8002308F7
:1000A0002102031D552822082002043003180130C4
:1000B000031902302805031DFF3072281030A800F4
:1000C000A101A001A70CA60C031C6A282208A00706
:1000D0002308A13DA10CA00CA50CA40CA80B622820
:1000E0002408722840016400080020308400850143
:1000F000603080310120A030840085015030803193
:1001000001202030840001308500503080310120F2
:10011000A030840001308500503080310120203033
:10012000840002308500503080310120A0308400EE
:1001300002308500503080310120203084000330AF
:100140008500503080310120A030840003308500CC
:100150005030803101202030840004308500503040
:1001600080310120A030840004308500503080317F
:10017000012020308400053085005030803101207E
:10018000A0308400053085005030803101202030BF
:1001900084000630850050308031012051018D01EE
:1001A0007E01B801C301CE014001FF3092009301EE
:1001B0007E01093099000A309A000B309B00143000
:1001C000A4004B01FF309D009C016A309F004E014E
:1001D0008C12961640018031F4284B0180309E002D
:1001E0000B178B174001080020308D008331DE2370
:1001F0000330D1004D09D200843136240430CF00C1
:10020000843130242030D00084312A24FF30C600CD
:1002100083319923DF30C100FF30C2005008C1058F
:10022000C2010F304107D00084312A2407304F0526
:10023000C100C20108304104CF0084313024FA30BB
:100240008031232007304F05C100C201F8304F052F
:10025000C300C401C335C40D41084304CF00F830C6
:100260004F05C100C201A001A1014208A30041083D
:1002700080314C20031DE133F030C100FF30C2005B
:100280005008C105C20120304104D00084312A2425
:100290000730CF058431302450019A01400180316C
:1002A0000620BA00500101309A004001803106203A
:1002B000BB00500102309A00400180310620BC0092
:1002C000500103309A00400180310620BD005001EA
:1002D00004309A00400180310620BE007F30BA050C
:1002E0007F30BB057F30BC057F30BD057F30BE054C
:1002F0008231BC228331DE2301304D05C100C201B1
:10030000A001A1014208A300410880314C208131A5
:10031000031D8D29D3018131C52902304D05C1004E
:10032000C201A001A1014208A300410880314C2074
:100330008131031D9F290130D3008131C52904304B
:100340004D05C100C201A001A1014208A30041085E
:1003500080314C208131031DB1290230D30081311D
:10036000C52908304D05C100C201A001A101420804
:10037000A300410880314C208131031DC329033083
:10038000D3008131C5290430D30020304D05C10090
:10039000C201640041084204823103192A2A8331D0
:1003A000EF2364005408013C8131031DDF298331B0
:1003B0008923C030C600833199238231282A640002
:1003C0005408023C8131031DED2983319523C0304F
:1003D000C600833199238231282A640081314B1869
:1003E000F32983317D2340304D05C100C201A001B6
:1003F000A1014208A300410880314C208231031D35
:100400000C2ACB14DF30C100FF30C2004108D005F8
:1004100084312A248231282A64008231CB1C282A84
:10042000CB108331D723530850019A00400148086C
:1004300080310F205308C70047083A3E840000303F
:100440008501853D480880002030D00484312A246D
:100450008231BA2A8331EF238331D723F030C100B0
:10046000FF30C2004108D0054708A600A7010230AE
:10047000A200A30180315E20C1002508C200013026
:10048000A000A101410880313E20C1002108C20026
:100490004108A0004208A100A301003080314320A0
:1004A000C10041083F05C100C20164004108420487
:1004B000823103195F2A0430D0048231612A083066
:1004C000D0044708A600A7010230A200A301803192
:1004D0005E20C1002508C2000230A000A101410831
:1004E00080313E20C1002108C2004108A00042081E
:1004F000A100A301003080314320C10041083F0525
:10050000C100C201640041084204823103198C2AEF
:100510000130D00482318E2A0230D00484312A2462
:1005200007304F05C100C2010830A000A1014708F3
:1005300080313E20C3002108C40041084304CF009D
:1005400084313024640082314B1CB22A8231BC22B7
:100550006400470853028231031DB02A83313923D6
:100560008231BA2A64004708530282310319BA2A39
:100570008231E72281317A29C701640005304702C0
:1005800082310318E42A47083A3E8400003085018E
:10059000853D0008C10048084102C100C201031C9A
:1005A000C2037F30C1050030C2054108A0004208E7
:1005B000A100A3011930803149208231031DE12AB5
:1005C0000800C70A031DD9330430C700080083316F
:1005D000D1234908CA006400530847028331031835
:1005E0000A2B47085302C100C201031CC203410881
:1005F000A0004208A100A3010330803146208331CE
:10060000031D062B833189238331082B83319523E6
:100610008331212B53084702C100C201031CC203CE
:100620004108A0004208A100A30103308031462008
:100630008331031D1F2B833195238331212B83317C
:100640008923C030C6006400603046028331031C39
:10065000382B8331992364004608603C83310319A9
:10066000342B0830803123200130C6020318EB33CD
:1006700008006030C6006400C030460283310318B1
:100680004D2B0830C607833199236400C0304602E1
:10069000833103184D2B83316C23C5018331D12362
:1006A000640049084A028331031D612BC50A6400B6
:1006B0004508023C8331031D612B8331792383314B
:1006C0007D2B64004E0183108C1E8314400183181F
:1006D000E53383317923CF334B01FF309D009C01FB
:1006E0006A309F004E018C124B0180309E00400109
:1006F00008004B019E0140010800FF30C600833115
:1007000099233F30C100FF30C2004108D005843139
:100710002A2C7F30C100FF30C2005008C105C20141
:1007200040304104D00084312A2CC030D0048431C0
:100730002A2CF830CF05843130240A30D100033020
:10074000D200843136240930D1004608D2008431E9
:1007500036240D30D1000130D2008431362C503097
:100760008031302064004608FF3C8331031DBB2BE1
:100770004B108331BC2B4B140800FF30920020300B
:1007800051048D00103051048D0001308031302033
:100790000C08D200EF30C100FF30C20041088D05C7
:1007A0000800D1018331BD235208C900080001307F
:1007B000D1008331BD235208C80008000230D100A7
:1007C0008331BD235208CC00323080312320833165
:1007D000BD23640052084C02031DF43308000530A9
:1007E000D1008331BD235208BF00C0010630D100C3
:1007F0008331BD2303305205C100C2014108A0006E
:100800004208A100083080313E20C1002108C2000A
:100810004108BF044208C00440305205C100C20173
:10082000640041084204843103191A2C0130D400B9
:100830008431292C80305205C100C2016400410876
:10084000420484310319282C0230D4008431292C2D
:10085000D40108000730D1005008D2008431362C72
:100860000430D1004F08D2008431362CDF30C10073
:10087000FF30C200510841058D0010308D04520830
:100880008C009201EF30C100FF30C20041088D059D
:0A089000FF30920008006300FE3301
:020000040001F9
:02000E00883B2D
:080010007D37BF07FF1FFF3F12
:00000001FF
