:020000040000FA
:10000000732880010131090BFC3370285001F03056
:100010009B001E171E141C089A0A702889015001A3
:100020009C00F0309B001E171E158B138B1B152890
:1000300055309F00AA309F009E148B179E181E28D3
:100040001E119A0A7028A301A200FF30A207031C08
:10005000A307031C70280330A100E73031202528B6
:10006000A101A0000000023064000310A03B0301C6
:10007000A13B031834280800A035A10DFF3E03184A
:100080003C2820087028A20002304C28A20003302F
:100090004C28A301A2000530A80023082102031D5B
:1000A00053282208200204300318013003190230BB
:1000B0002805031DFF3070281030A800A101A00101
:1000C000A70CA60C031C68282208A0072308A13D42
:1000D000A10CA00CA50CA40CA80B60282408702867
:1000E00040016400080020308400850160308031C8
:1000F0000120A03084008501503080310120203063
:10010000840001308500503080310120A03084000F
:1001100001308500503080310120203084000230D1
:100120008500503080310120A030840002308500ED
:100130005030803101202030840003308500503061
:1001400080310120A03084000330850050308031A0
:10015000012020308400043085005030803101209F
:10016000A0308400043085005030803101202030E0
:10017000840005308500503080310120A03084009B
:100180000530850050308031012020308400063059
:10019000850050308031012051018D017E01B80170
:1001A000C301CE014001FF30920093017E0109306E
:1001B00099000A309A000B309B001430A4004B01C8
:1001C000FF309D009C016A309F004E018C129616F4
:1001D00040018031F2284B0180309E000B178B17B5
:1001E0004001080020308D008331F0230330CE0021
:1001F0004A09CF00843148240430CC0084314224A1
:100200002030CD0084313C24FF30C1008331AB234A
:10021000DF30BC00FF30BD004D08BC05BD010F3014
:100220003C07CD0084313C2407304C05BC00BD01A7
:1002300008303C04CC0084314224FA308031232041
:1002400007304C05BC00BD01F8304C05BE00BF01B5
:10025000BE35BF0D3C083E04CC00F8304C05BC0058
:10026000BD01A001A1013D08A3003C0880314A2046
:10027000031DE133F030BC00FF30BD004D08BC056C
:10028000BD0120303C04CD0084313C240730CC0536
:100290008431422450019A01400180310620C4007B
:1002A000500101309A00400180310620C2008331A4
:1002B000F02320304A05BC00BD0164003C083D0429
:1002C00081310319D8298431012464005108013C8B
:1002D0008131031D732983319923C030C1008331DB
:1002E000AB238131832964005108023C8131031D15
:1002F00081298331A623C030C1008331AB238131F2
:10030000832983318D2364008131C618D629833136
:10031000F02340304A05BC00BD01A001A1013D0809
:10032000A3003C0880314A208131031DA2294615D3
:10033000DF30BC00FF30BD003C08CD0584313C24DB
:100340008131D62964008131461DD6294611833179
:10035000E32364008131461CB22948087F3CC40075
:100360008131C02948087F3CBC000030031CFF3E9F
:10037000BD000630BC070030BD3D7F303C05C400E9
:100380008331E92349080C3CC20050019A01400125
:10039000440880310F20500101309A00400142088A
:1003A00080310F202030CD0484313C248231E22A78
:1003B000843101248331E92349084207BC00BD018F
:1003C000BD0D7F303C05C30064001A30430281310B
:1003D0000318ED29C30182310D2A64003330430232
:1003E00081310318F7290130C30082310D2A6400DE
:1003F0004D30430282310318012A0230C30082319A
:100400000D2A640066304302823103180B2A033040
:10041000C30082310D2A0430C300F030BC00FF302D
:10042000BD003C08CD054308A600A7010230A2008C
:10043000A30180315C20BC002508BD000130A00074
:10044000A1013C0880313E20BC002108BD003C08D1
:10045000A0003D08A100A301003080314320BC0072
:100460003C083A05BC00BD0164003C083D048231F3
:1004700003193E2A0430CD048231402A0830CD04CD
:100480004308A600A7010230A200A30180315C202E
:10049000BC002508BD000230A000A1013C0880314D
:1004A0003E20BC002108BD003C08A0003D08A10082
:1004B000A301003080314320BC003C083A05BC0059
:1004C000BD0164003C083D04823103196B2A0130F0
:1004D000CD0482316D2A0230CD0484313C240730B2
:1004E0004C05BC00BD010830A000A10143088031CB
:1004F0003E20BE002108BF003C083E04CC008431F1
:1005000042248331F02301304A05BC00BD01A00123
:10051000A1013D08A3003C0880314A208231031D1F
:10052000942AD0018231CC2A02304A05BC00BD0198
:10053000A001A1013D08A3003C0880314A2082317E
:10054000031DA62A0130D0008231CC2A04304A058E
:10055000BC00BD01A001A1013D08A3003C08803101
:100560004A208231031DB82A0230D0008231CC2AC1
:1005700008304A05BC00BD01A001A1013D08A3004F
:100580003C0880314A208231031DCA2A0330D00042
:100590008231CC2A0430D00064008231C61CDA2AB1
:1005A0006400430850028231031DD82A833132236C
:1005B0008231E22A64004308500282310319E22AA0
:1005C0008231E4228131572964005008430283318B
:1005D0000318032B43085002BC00BD01031CBD03DC
:1005E0003C08A0003D08A100A30103308031462053
:1005F0008231031DFF2A833199238331012B8331FB
:10060000A62383311A2B50084302BC00BD01031CF2
:10061000BD033C08A0003D08A100A30103308031C8
:1006200046208331031D182B8331A62383311A2BD7
:1006300083319923C030C1006400603041028331AE
:10064000031C312B8331AB2364004108603C8331B0
:1006500003192D2B0830803123200130C1020318EB
:10066000EB33080064008331461C3A2B7F30C50011
:1006700083313C2B0530C5006030C1006400C030C0
:10068000410283310318502B0830C1078331AB235B
:100690006400C030410283310318502B83317C2326
:1006A000C0018331E32348084407BC00BD01BD0DF0
:1006B0007F30BC050030BD053C08A0003D08A1000E
:1006C0004508803149208331031D712BC00A640025
:1006D0004008023C8331031D712B83318923833110
:1006E0008D2B64004E0183108C1E831440018318EF
:1006F000D83383318923C2334B01FF309D009C01E5
:100700006A309F004E018C124B0180309E004001E8
:1007100008004B019E0140010800FF30C1008331F9
:10072000AB233F30BC00FF30BD003C08CD05843119
:100730003C2C46147F30BC00FF30BD004D08BC058A
:10074000BD0140303C04CD0084313C2C4610C0300B
:10075000CD0484313C2CF830CC05843142240A305D
:10076000CE000330CF00843148240930CE00410848
:10077000CF00843148240D30CE000130CF008431C9
:10078000482C50308031302064004108FF3C8331D8
:10079000031DCD2BC6108331CE2BC6140800FF30AD
:1007A000920020304E048D0010304E048D00013038
:1007B000803130200C08CF00EF30BC00FF30BD008E
:1007C0003C088D050800CE018331CF234F08C800B7
:1007D00008000130CE008331CF234F08C900080044
:1007E0000230CE008331CF234F08C7003230803132
:1007F00023208331CF2364004F084702031DF433C5
:1008000008000530CE008331CF234F08BA00BB016A
:100810000630CE008331CF2303304F05BC00BD012D
:100820003C08A0003D08A100083080313E20BC00FB
:100830002108BD003C08BA043D08BB0440304F0508
:10084000BC00BD0164003C083D04843103192C2C1C
:100850000130D10084313B2C80304F05BC00BD01FC
:1008600064003C083D04843103193A2C0230D10065
:1008700084313B2CD10108000730CE004D08CF0059
:100880008431482C0430CE004C08CF008431482CF1
:10089000DF30BC00FF30BD004E083C058D0010303D
:1008A0008D044F088C009201EF30BC00FF30BD007A
:0E08B0003C088D05FF30920008006300FE3307
:020000040001F9
:02000E00883B2D
:080010007D37BF07FF1FFF3F12
:00000001FF
