:020000040000FA
:10000000B2015F290408A0002A0884002B0885009B
:1000100020088000AA0A03145C29B216B21EB2128C
:10002000B2191628B215672003184E280830A3000D
:100030007C20A20DA30B1828B21E5B208A208420EE
:10004000B21A4E205320220803105C293217321FA7
:100050003213860029080310031D3128321B4E2855
:100060005C291600392003185C29A9032A28B21636
:10007000B21EB21232194128FE39B30032150310F4
:100080005C29321A4928A6003216672003184E2828
:1000900026086F2003184E28B21E5C295B208A2098
:1000A00032113212B2113808850036088400053149
:1000B0003408800463283808850036088400340931
:1000C0008005053180056428652866285C29532051
:1000D0008A205E215B2084203308B2190138A200F7
:1000E0000830A300A20D03185320031C5B208A20B4
:1000F0008420A30B722853208A20380885003608F4
:10010000840034080005FF3E390885003708840064
:1001100035096028390885003708840035085928D2
:10012000A400A90803195C2924085721A9039228CF
:10013000B31329080319B3170430A800250EA5200E
:100140002508A520240EA52024080F39F63E031803
:10015000073E0A3EC828B31329080319B317053010
:10016000A8002730A3001030C1200330A300E830DE
:10017000C120A3016430C120A3010A30C12024089A
:10018000C828A2002508A1002408A0002B212008CF
:10019000A000A8030319B31329080319D2282802C1
:1001A000031808002008031DB313B31B0800303EDA
:1001B000572980010131090BFC335C29A301A200FE
:1001C000FF30A207031CA307031C5C290330A10016
:1001D000E730EC20E028A101A0000000023064001C
:1001E0000310A03B0301A13B0318EF280800A03532
:1001F000A10DFF3E0318F72820085C29A136A00CAA
:10020000FF3E0318FE2820085C29A20002301029B6
:10021000A101A301A20003301029A301A20005300F
:10022000A80023082102031D1729220820020430F8
:1002300003180130031902302805031DFF305C2923
:100240000038031DFF300405031DFF305C29040442
:10025000031DFF305C29A501A4011030A600210D6B
:10026000A40DA50D2208A4022308A53B03183D29CF
:100270002208A4072308A53D0310A00DA10DA60B7D
:100280002F2920085C291030A800A101A001A70C8B
:10029000A60C031C4F292208A0072308A13DA10C8E
:1002A000A00CA50CA40CA80B472924085C298400E9
:1002B00031088A00300882002000640008002030E5
:1002C0008400850160308031D920A0308400850110
:1002D00050308031D92020308400013085005030EA
:1002E0008031D920A0308400013085005030803129
:1002F000D920203084000230850050308031D92050
:10030000A03084000230850050308031D920203068
:1003100084000330850050308031D920A030840023
:100320000330850050308031D920203084000430E3
:10033000850050308031D920A03084000430850001
:1003400050308031D9202030840005308500503075
:100350008031D920A03084000530850050308031B4
:10036000D920203084000630850050308031D920DB
:1003700031008D013E00B801C301CE012000FF30E5
:10038000910092010C30930086319A2E08302100A2
:1003900056042000FA00083021005604CE00003038
:1003A000CF0004304E042000FB000830210056042A
:1003B0002000FD000E30B6000030B8000230B4005E
:1003C0000E30B7000030B9000130B5004E3080313A
:1003D00039200330A90087017A30803126200A3085
:1003E0008031DE200800F03021005605CE00CF011C
:1003F00008304E042000FA00F03021005605CE00EF
:10040000CF010830CE040030CF0404304E04200069
:10041000FB00F03021005605CE00CF0108304E041D
:100420002000FC000F3021005605CE00CF014E0801
:100430002000A00021004F082000A10004308031DE
:10044000F9202100CE00200021082100CF00083033
:100450004E042000FD000F3021005605CE00CF01D4
:100460004E082000A00021004F082000A100043009
:100470008031F9202100CE00200021082100CF008A
:100480000830CE040030CF0404304E042000FE00BB
:100490000F3021005605CE00CF014E082000A000ED
:1004A00021004F082000A10004308031F9202100F4
:1004B000CE00200021082100CF0008304E0420008B
:1004C000FF000E30B6000030B8000230B4000E302D
:1004D000B7000030B9000130B5004E30803139200E
:1004E0000630A90087017A30803126200A30803119
:1004F000DE200800A030AA00AB0121005508143C02
:10050000CE000030031CFF3ECF004E082000A900A3
:100510000230B000B10120308031902000308031B5
:1005200003202100DB0120006400143021005B0265
:10053000833120000318722B210057082000A000EF
:100540000430813108212100CE0055082000A00090
:100550001430813108212100D0004E088400500859
:100560002000813127212100D000D10064005008F3
:100570005104823120000319BF2A8331722B2100DC
:100580005B08A03E840000308501853D0008D60050
:1005900064005608003C82312000031DD12A8331BB
:1005A000722BF03021005605CE00CF010830CE046A
:1005B0000030CF0401304E042000FA00F03021005A
:1005C0005605CE00CF010830CE040030CF040130F4
:1005D000CE040030CF0404304E042000FB00F03085
:1005E00021005605CE00CF010830CE040030CF04E4
:1005F00001304E042000FC000F3021005605CE00D3
:10060000CF014E082000A00021004F082000A100CB
:1006100004308031F9202100CE0020002108210083
:10062000CF000830CE040030CF0401304E0420004B
:10063000FD000F3021005605CE00CF014E082000EE
:10064000A00021004F082000A10004308031F920D3
:100650002100CE00200021082100CF000830CE0468
:100660000030CF040130CE040030CF0404304E04FB
:100670002000FE000F3021005605CE00CF014E08AD
:100680002000A00021004F082000A100043080318C
:10069000F9202100CE00200021082100CF000830E1
:1006A000CE040030CF0401304E042000FF000E3095
:1006B000B6000030B8000230B4000E30B700003091
:1006C000B9000130B5004E30803139200630A90024
:1006D00087017A30803126202100D50ADB0A2000EC
:1006E000031D2233080021000130D6002000813193
:1006F000F329210057082000A0000430813108218F
:100700002100CE0055082000A000143081310821BE
:100710002100D0004E08840050082000813127219C
:100720002100D000D1006400500851048331200022
:1007300003199B2B080021005708C43E8400003099
:100740008501853D0008CE0080304E07CE00CF01E8
:10075000CF0D4E085507D60020008131F329210026
:100760000130D700D50120008331792382319122D5
:1007700082317A220730A300D0308031DF20080098
:10078000C430AA00AB0100308031032040308031FA
:1007900003201430803103205430803103200E3088
:1007A000B6000030B8000230B4000E30B7000030A0
:1007B000B9000130B5004E30803139200030803131
:1007C000372064308031DE2021003030D600200018
:1007D0008131C6218131C6218131C62121002030DD
:1007E000D60020008131C62121002830D60020000B
:1007F0008131F32121002830D60020008131F321FE
:1008000021000830D60020008131F3212100013081
:10081000D60020008131F32121000630D6002000CF
:100820008131F32121002830D60020008131F321CD
:1008300021000F30D60020008131F32154330E30D7
:10084000B6000030B8000230B4000E30B7000030FF
:10085000B9000130B500A03080313920843103184F
:100860008A2C210049082000803139208431031866
:100870008A2C210048082000803137208431031859
:100880008A2C0E30B6000030B8000230B4000E30B2
:10089000B7000030B9000130B500A03080313920F8
:1008A000843103188A2C80310D20843103188A2C5E
:1008B0002100DA00200008000E30B6000030B80039
:1008C0000230B4000E30B7000030B9000130B5007E
:1008D000A03080313920843103188A2C2100490846
:1008E000200080313920843103188A2C21004808E7
:1008F000200080313920843103188A2C21005A08C5
:10090000200080313720843103188A2C0A3080314E
:10091000DE200800A030AA00AB0145308031032062
:1009200045308031032050308031032052308031F7
:1009300003204F30803103204D30803103202030A0
:100940008031032045308031032072308031032014
:100950007230803103206F3080310320723080315B
:1009600003200030803103208331AF2B2100D401DC
:100970002000833173232100D701D501200083316A
:100980007923A030AA00AB015330803103205730C7
:1009900080310320A90121006F082000A400A501D7
:1009A0000230B000B1018031AB2020308031032013
:1009B00000308031032082319122640021005F08E1
:1009C000843120000319FB2CA030AA00AB014F306A
:1009D00080310320503080310320453080310320A6
:1009E0004E308031032020308031032000308031B0
:1009F00003208531102DA030AA00AB0120308031BA
:100A0000032020308031032020308031032020302B
:100A100080310320203080310320003080310320DA
:100A200082319122640022002108013C853120009E
:100A3000031D2B2DA030AA00AB01553080310320BF
:100A4000703080310320203080310320003080312D
:100A500003208531532D640022002108023C85319A
:100A60002000031D442DA030AA00AB01443080318A
:100A700003205730803103204E3080310320003076
:100A8000803103208531532DA030AA00AB012030E6
:100A9000803103202030803103202030803103203A
:100AA00000308031032082319122640085312100A1
:100AB0008310621C831420008318802D8030210055
:100AC0006C05CE00CF0164004E084F048531200034
:100AD0000319752DA030AA00AB012D308031032001
:100AE00000308031032085317E2DA030AA00AB017B
:100AF0002B30803103200030803103208531892D57
:100B0000A030AA00AB0120308031032000308031BA
:100B10000320823191228B3111238A31F822210066
:100B2000D5010130D700200083317923A030AA00FD
:100B3000AB014330803103207530803103207230A7
:100B400080310320723080310320653080310320F2
:100B50006E308031032074308031032020308031AA
:100B600003200230A900210059082000A400A5019B
:100B70000230B000B101803198203A30803103203A
:100B80000230A900210060082000A400A501023065
:100B9000B000B101803198200030803103208231D3
:100BA00091222100D5010230D70020008331792322
:100BB000A030AA00AB014430803103206530803181
:100BC000032073308031032069308031032072307C
:100BD0008031032065308031032064308031032070
:100BE0002030803103200230A90021006F08B53E7B
:100BF000840000308501853D0008CE004E082000AD
:100C0000A400A5010230B000B101803198203A3033
:100C1000803103200230A90021006F08BA3E840011
:100C200000308501853D0008CE004E082000A4005C
:100C3000A5010230B000B101803198200030803130
:100C40000320823191222100D5010330D7002000FA
:100C500083317923A030AA00AB010230A900210022
:100C600068082000A400A5010230B000B101803165
:100C700098203A30803103200230A9002100690811
:100C80002000A400A5010230B000B10180319820FD
:100C900000308031032082319122A030AA00AB01C4
:100CA0002030803103200230A90021006508200097
:100CB000A400A5010230B000B101803198203A3083
:100CC000803103200230A900210066082000A40022
:100CD000A5010230B000B101803198200030803190
:100CE000032082319122A030AA00AB012030803154
:100CF00003200230A90021006A082000A400A501F9
:100D00000230B000B101803198203A3080310320A8
:100D10000230A900210067082000A400A5010230CC
:100D2000B000B10180319820003080310320823141
:100D30009122080064008E1DFD330130A300F430C1
:100D40008031DF202100FF30CA00FF30CB002000BF
:100D500020308D008331C0238D31BC258A31A622FD
:100D60002100DF30CE00FF30CF006C08CE05CF0170
:100D70000F304E07EC0020008D31B4252100EF012B
:100D800020006400053021006F0286312000031826
:100D9000D32E8D31C125FA308031DE202100EF0ABB
:100DA0002000031DEE332100F030CE00FF30CF00D5
:100DB0006C08CE05CF0120304E04EC0020008D31B0
:100DC000B4258D31BC252100D801200064000530F8
:100DD00021005802873120000318252F21005808D0
:100DE0002000A600A7010230A200A3018131432107
:100DF0002100C800200025082100C90020008431FE
:100E00001F247F3021005A05CE00CF015808B53E7F
:100E1000840000308501853D4E088000C80A031912
:100E2000C90A200084311F247F3021005A05CE00DA
:100E3000CF015808BA3E840000308501853D4E0838
:100E40008000D80A2000031DC13321000130D400E6
:100E500020008B312B2388311E2088310E208D31CC
:100E6000CD25640021005F08873120000319EE2F93
:100E70006400873121008310621C831420008318D2
:100E8000432F8A31A622640022002108013C8731C9
:100E90002000031D552F8D3180252100C030D20048
:100EA00020008A31B8228731DC2F6400220021081B
:100EB000023C87312000031D672F8D318E252100D4
:100EC000C030D20020008A31B8228731DC2F640084
:100ED000873121008310621C831420008318722F35
:100EE0008A31A622640021006408003C873120007A
:100EF000031D812F2100E21420008D3176258731DA
:100F0000DC2F6400873121008310E21C8314200051
:100F10008318DC2F2100E21020008B3111232100E7
:100F20006F082000A600A7010230A200A3018131B2
:100F300043212100C800200025082100C9005908CC
:100F4000DA00200084315C242100C80A0319C90A90
:100F500020008A31F822803021006C05CE00CF01BC
:100F600064004E084F04873120000319C22F063059
:100F700021006002CE00CF010030CF3B7F304E0514
:100F8000E000200021006008DA00200084315C24A9
:100F900021006F08B53E840000308501853D590869
:100FA00080006F08BA3E840000308501853D6008EE
:100FB000800020008D3170258B312B2364002100AF
:100FC0005408873120000319E72F8431B6246400C8
:100FD00021005F08003C2000031D553388311E208E
:100FE0008B312B2388310E206400210058086F02BA
:100FF000873120000319FE2F8831EA206400210088
:10100000540888312000031907288431B62464006D
:1010100021005F0820000319E33323338B311123B0
:1010200021005936CE00CF014E083A3E84000030F0
:101030004F3D85000008D800200008002200A201D2
:101040002000640040302200220288312000031872
:101050003628220022083A3E840000308501853D72
:1010600005308000A20A2000031DEB332100D801C7
:101070002000640005302100580288312000031848
:10108000952821005808B53E840000308501853D33
:101090000008CE000C304E02CE00CF010030CF3B16
:1010A0007F30CE050030CF054F0C4E0C2200A20041
:1010B0002000220022083A3E840000308501853D50
:1010C0002100580880000130220022072100CE00B4
:1010D000CF01CF0D3F304E052200A200210058085D
:1010E000B53E840000308501853D0008CE000C30FF
:1010F0004E07CE00CF01CF0D7F30CE050030CF059B
:10110000CF36CE0C4E082000A00021004F08200052
:10111000A10022002208200081310D21031DC933C6
:101120002100D80A2000031DA4332200A2012000C0
:101130006400403022002202883120000318E92890
:10114000220022083A3E840000308501853D0008D7
:101150002100CE0064004E08053C88312000031DAC
:10116000E42822002208A3002000013022002307E7
:101170002100CE00CF01CF0D3F304E052200A3004D
:1011800023083A3E840000308501853D0008210097
:10119000CE0064004E08053C20000319E63322000F
:1011A00023083A3E840000308501853D0008210077
:1011B000CE00220022083A3E840000308501853DA1
:1011C00021004E08800020002200A20A2000031DFA
:1011D000AF330800640021006F08580289312000F5
:1011E00003180F29210058086F02CE00CF01031CFD
:1011F000CF034E082000A00021004F082000A100CE
:10120000A301033081310A218931031D0B298D315E
:10121000802589310D298D318E2589312A2921009A
:101220006F085802CE00CF01031CCF034E082000E8
:10123000A00021004F082000A100A301033081314C
:101240000A218931031D28298D318E2589312A29CA
:101250008D3180252100C430D2002E008C16200054
:101260008B31112321005908DE00E101200021000B
:101270005208903C031DFF30CE004E0884002E0023
:1012800000308C1A01302000813120212100CE0055
:10129000CF0064004E084F048931200003195829FB
:1012A00004302100D20220008A31B8228A319522EE
:1012B00088310E208D31CD2521005208903C031D30
:1012C000FF30FF3ACE004E0884002E0000308C1A0A
:1012D00001302000813120212100CE00CF006400A8
:1012E0004E084F048931200003199529640021001C
:1012F0005E08590289312000031985292100E10186
:101300005908DE002000893193292100E10A640098
:101310008030610289312000031C93298A31A62282
:101320008A31A12208008A31952221006F08B53E3A
:10133000840000308501853D0008E8005908E90077
:101340005208EA006F08B53E840000308501853DF3
:101350000008CE0059084E022200A000803020056F
:101360002100CE00CF0164004E084F0489312000D7
:101370000319C429220020092100CE00FF30CF002C
:101380004E0A2200A000200064000A302200200241
:10139000200003186C338A31A1222E008C16200005
:1013A0008A31F82221006008DE00E10120002100DE
:1013B0005208C03C031DFF30CE004E0884002E00B2
:1013C00000308C1A01302000813120212100CE0014
:1013D000CF0064004E084F04893120000319F8291A
:1013E00004302100D20720008A31B8228A319522A8
:1013F0008A31F82221005208C03C031DFF30FF3A19
:10140000CE004E0884002E0000308C1A01302000DF
:10141000813120212100CE00CF0064004E084F040E
:101420008A3120000319332A640021005E0860021B
:101430008A3120000319232A2100E1016008DE001F
:1014400020008A31312A2100E10A640080306102E3
:101450008A312000031C312A8A31A6228A31A12236
:1014600008008A31952221006F08BA3E84000030BE
:101470008501853D0008E5006008E6005208E700A8
:1014800080306C05CE00CF0164004E084F048A31D5
:1014900020000319642A21006F08BA3E840000303E
:1014A0008501853D0008CE0006304E07CE00CF01F5
:1014B000CF0D7F30CE050030CF054E0860022200F0
:1014C000A00020008A31722A21006F08BA3E8400F1
:1014D00000308501853D0008CE004E0860022200E4
:1014E000A00020008030220020052100CE00CF0186
:1014F00064004E084F048A3120000319892A220013
:1015000020092100CE00FF30CF004E0A2200A000AB
:10151000200064000230220020022000031847331C
:101520008A31A62A8A31A12208009E01FF309D003F
:101530009C016A309F002E008C12200080309E009B
:1015400008009E012E008C12200008002100FF30B0
:10155000D20020008A31B8228D3194258A31F822B8
:101560008B31112321000130D400621020000800CB
:1015700021000A30ED000330EE0020008D31DD2522
:1015800021000930ED005208EE0020008D31DD25EC
:1015900021000D30ED000130EE0020008D31DD2501
:1015A00050308031EB20640021005208FF3C8A312A
:1015B00020000319DE2A21006214200008002030D8
:1015C00021006D0420008D00203021006D04CE002C
:1015D0000030CF0010304E0420008D0001308031EB
:1015E000EB200C082100EE006D0820008D000800A3
:1015F0002100ED0120008A31DF2221006E08E00089
:1016000020008A31DF22640021006E0860028B31E5
:101610002000031D0C2B080021006E08E0002000B4
:10162000F03321000130ED0020008A31DF2221005B
:101630006E08D90020008A31DF22640021006E0884
:1016400059028B312000031D262B080021006E0853
:10165000D9002000F03321000230ED0020008A3153
:10166000DF22640021006E0863028B312000031921
:101670005C2B21006E08E300D30120000130803193
:10168000DE208A31DF226400210063086E028B3184
:1016900020000319522B21006E08E300D301200023
:1016A0008B31552B2100D30A200064002100530800
:1016B000C83C2000031DE233640021006E085C0278
:1016C0008C3120000319082C21006E08DC00013049
:1016D000D40001306E05CE00CF012000A001A10191
:1016E00021004F082000A30021004E082000813176
:1016F0000E218B31031D812B2100EF0120008B3146
:10170000D32B023021006E05CE00CF012000A001B6
:10171000A10121004F082000A30021004E08200055
:1017200081310E218B31031D9B2B21000130EF00F5
:1017300020008B31D32B043021006E05CE00CF0169
:101740002000A001A10121004F082000A3002100DA
:101750004E08200081310E218B31031DB52B210055
:101760000230EF0020008B31D32B083021006E05B2
:10177000CE00CF012000A001A10121004F082000D0
:10178000A30021004E08200081310E218B31031D62
:10179000CF2B21000330EF0020008B31D32B210011
:1017A0000430EF002000203021006E05CE00CF0174
:1017B00064004E084F048B3120000319E52B2100F3
:1017C0000130DF0020008B31E82B2100DF012000F9
:1017D000403021006E05CE00CF0164004E084F045A
:1017E0008B3120000319FA2B21000130E400200086
:1017F0008B31FD2B2100E4012000640021005F08F3
:101800008C3120000319062C8D31C1258D319E2588
:1018100021000530ED0020008A31DF2221006E0812
:10182000CC00CD010630ED0020008A31DF220330EC
:1018300021006E05CE00CF014E082000A00021003F
:101840004F082000A10008308031F9202100CE008F
:10185000200021082100CF004E08CC044F08CD0401
:1018600040306E05CE00CF012000A001A101210073
:101870004F082000A30021004E08200081310E21D6
:101880008C31031D492C22000130A10020008C3135
:10189000662C803021006E05CE00CF012000A00113
:1018A000A10121004F082000A30021004E082000C4
:1018B00081310E218C31031D632C22000230A100E6
:1018C00020008C31662C2200A101200021004A0852
:1018D0002000A00021004B082000A10021004D089D
:1018E0002000A30021004C082000813105218D310A
:1018F000031D5F2D21004C08CA004D08CB00D80104
:10190000200064000530210058028D3120000318AA
:101910005D2D210058082000A600A7010230A2007A
:10192000A301813143212100CE00200025082100A0
:10193000CF004C082000A00021004D082000A1008D
:1019400021004E082000813100212100CE0020001E
:1019500021082100CF000330CE050030CF05200044
:10196000A001A10121004F082000A30021004E0882
:10197000200081310E218C31031DCA2C2100580812
:10198000BF3E840000308501853D05308000200089
:101990008D31582D210058082000A600A7010230E3
:1019A000A200A301813143212100CE00200025089F
:1019B0002100CF004C082000A00021004D0820008D
:1019C000A10021004E082000813100212100CE001D
:1019D000200021082100CF000330CE050030CF05C4
:1019E00020000130A000A10121004F082000A30029
:1019F00021004E08200081310E218D31031D0C2D58
:101A000021005808BF3E840000308501853D093023
:101A1000800020008D31582D210058082000A6009C
:101A2000A7010230A200A301813143212100CE0091
:101A3000200025082100CF004C082000A000210034
:101A40004D082000A10021004E0820008131002116
:101A50002100CE00200021082100CF000330CE0558
:101A60000030CF0520000230A000A10121004F0866
:101A70002000A30021004E08200081310E218D316D
:101A8000031D4E2D21005808BF3E84000030850103
:101A9000853D0630800020008D31582D21005808EA
:101AA000BF3E840000308501853D0A308000200063
:101AB0002100D80A2000031D24338D319E256400A7
:101AC00021005D08220021028D31200003196F2DB5
:101AD000220021082100DD000130D4002000080090
:101AE00020302100EC0420008D31B42D2100DF30A6
:101AF000CE00FF30CF004E08EC0520008D31B42D14
:101B000021007F30CE00FF30CF006C08CE05CF0122
:101B100040304E04EC0020008D31B42DC030210047
:101B2000EC0420008D31B42D2100BF30CE00FF30F9
:101B3000CF004E08EC0520008D31B42D2100F0308F
:101B4000CE00FF30CF006C08CE05CF016F08BF3E3E
:101B5000840000308501853D0008D00050084E0407
:101B6000EC0020008D31B42D21000730ED006C0811
:101B7000EE0020008D31DD2D2100EE0120008D31A1
:101B8000D72D0830A00021006F0820008031F920F7
:101B90002100EE0020008D31D72D0830A00021005B
:101BA000580820008031F9202100EE00200021009B
:101BB0000430ED0020008D31DD2D21006D08200066
:101BC0008D00103021006D0420008D0021006E0872
:101BD00020008C00910121006D0820008D00FF3055
:081BE000910008006300FE33D0
:020000040001F9
:02000E009C173D
:080010003F378B07FF1FFF3F84
:00000001FF
