:020000040000FA
:10000000B20147290408A0002A0884002B088500B3
:1000100020088000AA0A03144429B216B21EB212A4
:10002000B2191628B215672003184E280830A3000D
:100030007C20A20DA30B1828B21E5B208A208420EE
:10004000B21A4E2053202208031044293217321FBF
:100050003213860029080310031D3128321B4E2855
:1000600044291600392003184429A9032A28B21666
:10007000B21EB21232194128FE39B30032150310F4
:100080004429321A4928A6003216672003184E2840
:1000900026086F2003184E28B21E44295B208A20B0
:1000A00032113212B2113808850036088400063148
:1000B0003408800463283808850036088400340931
:1000C0008005063180056428652866284429532068
:1000D0008A2046215B2084203308B2190138A2000F
:1000E0000830A300A20D03185320031C5B208A20B4
:1000F0008420A30B722853208A20380885003608F4
:10010000840034080005FF3E390885003708840064
:1001100035096028390885003708840035085928D2
:10012000A400A9080319442924083F21A9039228FF
:10013000B31329080319B3170530A8002730A3000B
:100140001030AE200330A300E830AE20A3016430AD
:10015000AE20A3010A30AE202408B528A20025084D
:10016000A1002408A00013212008A000A80303195F
:10017000B31329080319BF28280203180800200810
:10018000031DB313B31B0800303E3F29800101312A
:10019000090BFC334429A301A200FF30A207031C72
:1001A000A307031C44290330A100E730D920CD2840
:1001B000A101A0000000023064000310A03B030175
:1001C000A13B0318DC280800A035A10DFF3E031851
:1001D000E42820084429A2000230F828A101A30144
:1001E000A2000330F828A2000130F828A200053050
:1001F000A80023082102031DFF2822082002043042
:1002000003180130031902302805031DFF3044296B
:100210000038031DFF300405031DFF30442904048A
:10022000031DFF304429A501A4011030A600210DB3
:10023000A40DA50D2208A4022308A53B0318252917
:100240002208A4072308A53D0310A00DA10DA60BAD
:100250001729200844291030A800A101A001A70CEB
:10026000A60C031C37292208A0072308A13DA10CD6
:10027000A00CA50CA40CA80B2F2924084429840049
:1002800031088A00300882004001640008002030F4
:100290008400850160308031C620A0308400850153
:1002A00050308031C620203084000130850050302D
:1002B0008031C620A030840001308500503080316C
:1002C000C620203084000230850050308031C620A6
:1002D000A03084000230850050308031C6202030AC
:1002E00084000330850050308031C620A030840067
:1002F0000330850050308031C62020308400043027
:10030000850050308031C620A03084000430850044
:1003100050308031C62020308400053085005030B8
:100320008031C620A03084000530850050308031F7
:10033000C620203084000630850050308031C62031
:1003400051018D017E01B801C301CE014001FF3092
:10035000920093010C3094007E01093099000A301C
:100360009A000B309B001430A4004B01FF309D001D
:100370009C016A309F004E018C129616400181311B
:10038000C8294B0180309E000B178B1740010800D5
:100390008431ED2C08306604CB0008306604DE00A2
:1003A0000030DF0004305E04CC0008306604CE006C
:1003B0000E30B6000030B8000230B4000E30B70086
:1003C0000030B9000130B5004E30803139200330A3
:1003D000A90087014B30803126200A308031CB20A4
:1003E0000800F0306605DE00DF0108305E04CB0057
:1003F000F0306605DE00DF010830DE040030DF0487
:1004000004305E04CC00F0306605DE00DF01083009
:100410005E04CD000F306605DE00DF015E08A0003F
:100420005F08A10004308031E620DE002108DF00F3
:1004300008305E04CE000F306605DE00DF015E0886
:10044000A0005F08A10004308031E620DE00210812
:10045000DF000830DE040030DF0404305E04CF002B
:100460000F306605DE00DF015E08A0005F08A10016
:1004700004308031E620DE002108DF0008305E0411
:10048000D0000E30B6000030B8000230B4000E309C
:10049000B7000030B9000130B5004E30803139204E
:1004A0000630A90087014B30803126200A30803188
:1004B000CB2008003A30AA00AB016508103CDE00F2
:1004C0000030031CFF3EDF005E08A9000230B000D0
:1004D000B101203080319020003080310320EB01C9
:1004E000640010306B0283310318222B6708A000D0
:1004F00002308031EE20DE006508A000103080312F
:10050000EE20E0005E088400600881310F21E000E9
:10051000E10064006008610482310319912A83318B
:10052000222B6B083A3E840000308501853D00088F
:10053000E60064006608003C8231031DA12A833175
:10054000222BF0306605DE00DF010830DE040030CB
:10055000DF0401305E04CB00F0306605DE00DF0111
:100560000830DE040030DF040130DE040030DF0438
:1005700004305E04CC00F0306605DE00DF01083098
:10058000DE040030DF0401305E04CD000F3066056C
:10059000DE00DF015E08A0005F08A10004308031AA
:1005A000E620DE002108DF000830DE040030DF0432
:1005B00001305E04CE000F306605DE00DF015E080C
:1005C000A0005F08A10004308031E620DE00210891
:1005D000DF000830DE040030DF040130DE040030CC
:1005E000DF0404305E04CF000F306605DE00DF015B
:1005F0005E08A0005F08A10004308031E620DE0024
:100600002108DF000830DE040030DF0401305E0422
:10061000D0000E30B6000030B8000230B4000E300A
:10062000B7000030B9000130B5004E3080313920BC
:100630000630A90087014B3080312620E50AEB0AFD
:10064000031D4E3308000130E6008131F1296708AF
:10065000A00002308031EE20DE006508A0001030DE
:100660008031EE20E0005E088400600881310F21B7
:10067000E000E10064006008610483310319412B4C
:1006800008006708563E840000308501853D00085B
:10069000DE0080305E07DE00DF01DF0D5E086507EB
:1006A000E6008131F1290130E700E501833127239C
:1006B00082316F2282315A220730A300D03080313C
:1006C000CC2008005630AA00AB0100308031032056
:1006D0004030803103200E30B6000030B8000230C8
:1006E000B4000E30B7000030B9000130B5004E3014
:1006F0008031392000308031372064308031CB2088
:100700003030E6008131CA218131CA218131CA21CC
:100710002030E6008131CA212830E6008131F12104
:100720002830E6008131F1210830E6008131F121E5
:100730000130E6008131F1210630E6008131F121FE
:100740002830E6008131F1210F30E6008131F121BE
:100750007A330E30B6000030B8000230B4000E30EC
:10076000B7000030B9000130B500A0308031392029
:1007700084310318082C590880313920843103183A
:10078000082C58088031372084310318082C0E308B
:10079000B6000030B8000230B4000E30B7000030B0
:1007A000B9000130B500A030803139208431031800
:1007B000082C80310D2084310318082CEA00080031
:1007C0000E30B6000030B8000230B4000E30B70072
:1007D0000030B9000130B500A030803139208431BB
:1007E0000318082C59088031392084310318082C4B
:1007F00058088031392084310318082C6A08803168
:10080000372084310318082C0A308031CB200800AF
:100810003A30AA00AB0145308031032045308031A9
:1008200003205030803103205230803103204F307C
:10083000803103204D30803103202030803103206F
:100840004530803103207230803103207230803196
:1008500003206F308031032072308031032000305C
:10086000803103202033E40183312323E701E501B4
:10087000833127233A30AA00AB0153308031032063
:10088000573080310320A9017808A400A501023067
:10089000B000B10180319820203080310320003039
:1008A0008031032082316F2220307205DE00DF01AB
:1008B00064005E085F0484310319722C3A30AA0088
:1008C000AB014F3080310320503080310320453060
:1008D000803103204E3080310320003080310320EE
:1008E0008431842C3A30AA00AB01203080310320BF
:1008F00020308031032020308031032020308031AF
:10090000032000308031032082316F220301701CEC
:10091000FF30DE0080307505E000E1015E088400F4
:100920006008610481310821E000E1006400600892
:10093000610484310319B02C3A30AA00AB01443071
:10094000803103204F308031032077308031032005
:100950006E30803103200030803103208431BC2C84
:100960003A30AA00AB01553080310320503080313D
:10097000032000308031032082316F22E5010130F5
:10098000E700833127233A30AA00AB01443080319D
:100990000320203080310320A9016908A400A501AB
:1009A0000230B000B1018031982020308031032026
:1009B0004D3080310320203080310320A9016E08A2
:1009C000A400A5010230B000B101803198200030B0
:1009D0008031032082316F22080064008E1DFD33B8
:1009E00020308D00833162238731E7270330F60002
:1009F0007209F700883167200430F40088316120E3
:100A00002030F50088315B20FF30E3008731A227DA
:100A1000DF30DE00FF30DF007508DE05DF010F305C
:100A20005E07F50088315B2007307405DE00DF01CA
:100A300008305E04F40088316120FA308031CB2028
:100A400007307405DE00DF01F8307405E000E101D5
:100A5000E035E10D5E086004F400F8307405DE0056
:100A6000DF01A001A1015F08A3005E088031F6202C
:100A7000031DE133F030DE00FF30DF007508DE05D6
:100A8000DF0120305E04F50088315B200730F4057B
:100A900088316120E801640005306802853103185F
:100AA000752D6808D800D9018331A9236808513E03
:100AB000840000308501853D6A0880006808513E49
:100AC000840000308501853D0008DE007F305E0532
:100AD000DE00DF016808513E840000308501853D5D
:100AE0005E088000E80A031DD6338631C226013035
:100AF000E4008731E72701307205DE00DF01A00145
:100B0000A1015F08A3005E088031F6208531031D36
:100B10008C2DF8018531C42D02307205DE00DF0115
:100B2000A001A1015F08A3005E088031F620853195
:100B3000031D9E2D0130F8008531C42D043072054F
:100B4000DE00DF01A001A1015F08A3005E08803183
:100B5000F6208531031DB02D0230F8008531C42DFB
:100B600008307205DE00DF01A001A1015F08A300CB
:100B70005E088031F6208531031DC22D0330F80058
:100B80008531C42D0430F80020307205DE00DF010D
:100B900064005E085F0486310319292E8831042021
:100BA00064007908013C8531031DDE2D87319227D1
:100BB000C030E3008731A2278631272E64007908F0
:100BC000023C8531031DEC2D87319E27C030E300A8
:100BD0008731A2278631272E64008531701CF22DC3
:100BE0008731832740307205DE00DF01A001A101BB
:100BF0005F08A3005E088031F6208631031D0B2EAE
:100C0000F014DF30DE00FF30DF005E08F5058831CC
:100C10005B208631272E64008631F01C272EF010D1
:100C20008731E0277808D800D9016908EA008331C4
:100C3000E0237808E8006808513E84000030850110
:100C4000853D690880002030F50488315B208631BD
:100C5000B92E883104208731E027F030DE00FF30E4
:100C6000DF005E08F5056808A600A7010230A200B3
:100C7000A30181312B21DE002508DF000130A00017
:100C8000A1015E088031E620DE002108DF005E0859
:100C9000A0005F08A100A30100308031EB20DE003E
:100CA0005E085C05DE00DF0164005E085F048631DB
:100CB00003195E2E0430F5048631602E0830F504E9
:100CC0006808A600A7010230A200A30181312B21F0
:100CD000DE002508DF000230A000A1015E0880319F
:100CE000E620DE002108DF005E08A0005F08A1000A
:100CF000A30100308031EB20DE005E085C05DE00E1
:100D0000DF0164005E085F04863103198B2E013019
:100D1000F50486318D2E0230F50488315B200730D2
:100D20007405DE00DF010830A000A10168088031F1
:100D3000E620E0002108E1005E086004F40088314C
:100D4000612064008631701CB12E8631C226640099
:100D5000680878028631031DAF2E87313F27863120
:100D6000B92E64006808780286310319B92E8631DD
:100D7000ED266400640886310319C02E84313324C3
:100D80008531792DE8016400053068028631031849
:100D9000EA2E6808513E840000308501853D000838
:100DA000DE0069085E02DE00DF01031CDF037F3026
:100DB000DE050030DF055E08A0005F08A100A3018A
:100DC00019308031F3208631031DE72E0800E80A30
:100DD000031DD9330430E80008008731DA276E0894
:100DE000EF0064007808680287310318102F680844
:100DF0007802DE00DF01031CDF035E08A0005F084D
:100E0000A100A30103308031F0208731031D0C2F96
:100E10008731922787310E2F87319E278731272FE1
:100E200078086802DE00DF01031CDF035E08A00013
:100E30005F08A100A30103308031F0208731031D3A
:100E4000252F87319E278731272F87319227C03062
:100E5000E3006400603063028731031C3E2F87315A
:100E6000A22764006308603C873103193A2F0830D9
:100E70008031CB200130E3020318EB3308006030EF
:100E8000E3006400C030630287310318532F083039
:100E9000E3078731A2276400C0306302873103185B
:100EA000532F87317227E2018731DA2764006E08F9
:100EB0006F028731031D672FE20A64006208023C5B
:100EC0008731031D672F87317F278731832F640088
:100ED0004E0183108C1E831440018318E533873143
:100EE0007F27CF334B01FF309D009C016A309F006C
:100EF0004E018C124B0180309E00400108004B01D6
:100F00009E0140010800FF30E3008731A2273F30F7
:100F1000DE00FF30DF005E08F50588315B20013020
:100F2000E40008007F30DE00FF30DF007508DE05DA
:100F3000DF0140305E04F50088315B28C030F504E5
:100F400088315B28F830F405883161200A30F600DA
:100F50000330F700883167200930F6006308F70096
:100F6000883167200D30F6000130F700883167289E
:100F700050308031D82064006308FF3C8731031D66
:100F8000C42F70108731C52F70140800FF309200F5
:100F9000203076048D00103076048D0001308031D1
:100FA000D8200C08F700EF30DE00FF30DF005E08CD
:100FB0008D050800F6018731C6277708EE00080086
:100FC0000130F6008731C6277708E90008000230B3
:100FD000F6008731C6277708F10032308031CB2008
:100FE0008731C627640077087102031DF433770840
:100FF000F200640072086C02883103190328720839
:10100000EC000130E40008000530F6008731C62707
:101010007708DC00DD010630F6008731C627033093
:101020007705DE00DF015E08A0005F08A100083040
:101030008031E620DE002108DF005E08DC045F0866
:10104000DD045A08A0005B08A1005D08A3005C084D
:101050008031EB208831031D33285C08DA005D08FD
:10106000DB000130E40040307705DE00DF01640082
:101070005E085F048831031941280130F900883186
:10108000502880307705DE00DF0164005E085F04D1
:10109000883103194F280230F90088315028F901AE
:1010A00064006D087902883103195A287908ED0027
:1010B0000130E40008000730F6007508F7008831B9
:1010C00067280430F6007408F70088316728DF309D
:1010D000DE00FF30DF0076085E058D0010308D04E5
:1010E00077088C009201EF30DE00FF30DF005E08F1
:0C10F0008D05FF30920008006300FE3305
:020000040001F9
:02000E00883B2D
:080010007D37BF07FF1FFF3F12
:00000001FF
