:020000040000FA
:10000000B20157290408A0002A0884002B088500A3
:1000100020088000AA0A03145429B216B21EB21294
:10002000B2191628B215672003184E280830A3000D
:100030007C20A20DA30B1828B21E5B208A208420EE
:10004000B21A4E2053202208031054293217321FAF
:100050003213860029080310031D3128321B4E2855
:1000600054291600392003185429A9032A28B21646
:10007000B21EB21232194128FE39B30032150310F4
:100080005429321A4928A6003216672003184E2830
:1000900026086F2003184E28B21E54295B208A20A0
:1000A00032113212B2113808850036088400053149
:1000B0003408800463283808850036088400340931
:1000C0008005053180056428652866285429532059
:1000D0008A2056215B2084203308B2190138A200FF
:1000E0000830A300A20D03185320031C5B208A20B4
:1000F0008420A30B722853208A20380885003608F4
:10010000840034080005FF3E390885003708840064
:1001100035096028390885003708840035085928D2
:10012000A400A9080319542924084F21A9039228DF
:10013000B31329080319B3170430A800250EA5200E
:100140002508A520240EA52024080F39F63E031803
:10015000073E0A3EC828B31329080319B317053010
:10016000A8002730A3001030C1200330A300E830DE
:10017000C120A3016430C120A3010A30C12024089A
:10018000C828A2002508A1002408A00023212008D7
:10019000A000A8030319B31329080319D2282802C1
:1001A000031808002008031DB313B31B0800303EDA
:1001B0004F2980010131090BFC335429A301A2000E
:1001C000FF30A207031CA307031C54290330A1001E
:1001D000E730EC20E028A101A0000000023064001C
:1001E0000310A03B0301A13B0318EF280800A03532
:1001F000A10DFF3E0318F72820085429A136A00CB2
:10020000FF3E0318FE2820085429A20002300F29BF
:10021000A101A301A20003300F29A2000530A8000C
:1002200023082102031D1629220820020430031886
:100230000130031902302805031DFF30542904043E
:10024000031DFF305429A501A4011030A600210D83
:10025000A40DA50D2208A4022308A53B03183529E7
:100260002208A4072308A53D0310A00DA10DA60B8D
:100270002729200854291030A800A101A001A70CAB
:10028000A60C031C47292208A0072308A13DA10CA6
:10029000A00CA50CA40CA80B3F2924085429840009
:1002A00031088A00300882002000640008002030F5
:1002B0008400850160308031D920A0308400850120
:1002C00050308031D92020308400013085005030FA
:1002D0008031D920A0308400013085005030803139
:1002E000D920203084000230850050308031D92060
:1002F000A03084000230850050308031D920203079
:1003000084000330850050308031D920A030840033
:100310000330850050308031D920203084000430F3
:10032000850050308031D920A03084000430850011
:1003300050308031D9202030840005308500503085
:100340008031D920A03084000530850050308031C4
:10035000D920203084000630850050308031D920EB
:1003600031008D013E00B801C301CE012000FF30F5
:10037000910092010C3093008531842D0830750472
:10038000CF0008307504EE000030EF0004306E043A
:10039000D00008307504D2000E30B6000030B8002E
:1003A0000230B4000E30B7000030B9000130B500A3
:1003B0004E30803139200330A90087014F30803121
:1003C00026200A308031DE200800F0307505EE006E
:1003D000EF0108306E04CF00F0307505EE00EF013C
:1003E0000830EE040030EF0404306E04D000F0302A
:1003F0007505EE00EF0108306E04D1000F30750571
:10040000EE00EF016E08A0006F08A10004308031FB
:10041000F920EE002108EF0008306E04D2000F3002
:100420007505EE00EF016E08A0006F08A100043012
:100430008031F920EE002108EF000830EE04003092
:10044000EF0404306E04D3000F307505EE00EF01A9
:100450006E08A0006F08A10004308031F920EE0082
:100460002108EF0008306E04D4000E30B6000030D2
:10047000B8000230B4000E30B7000030B9000130CF
:10048000B5004E30803139200630A90087014F3049
:10049000803126200A308031DE2008003A30AA0060
:1004A000AB017408143CEE000030031CFF3EEF006B
:1004B0006E08A9000230B000B101203080319020D8
:1004C000003080310320FA01640014307A02833155
:1004D0000318162B7608A000043081310821EE00A5
:1004E0007408A000143081310821F0006E088400E7
:1004F000700881311F21F000F10064007008710460
:1005000082310319852A8331162B7A083A3E8400FA
:1005100000308501853D0008F50064007508003C49
:100520008231031D952A8331162BF0307505EE00BC
:10053000EF010830EE040030EF0401306E04CF000C
:10054000F0307505EE00EF010830EE040030EF04E6
:100550000130EE040030EF0404306E04D000F030BF
:100560007505EE00EF010830EE040030EF040130B5
:100570006E04D1000F307505EE00EF016E08A0008B
:100580006F08A10004308031F920EE002108EF004F
:100590000830EE040030EF0401306E04D2000F305A
:1005A0007505EE00EF016E08A0006F08A100043091
:1005B0008031F920EE002108EF000830EE04003011
:1005C000EF040130EE040030EF0404306E04D30079
:1005D0000F307505EE00EF016E08A0006F08A10056
:1005E00004308031F920EE002108EF000830EE04DD
:1005F0000030EF0401306E04D4000E30B60000303D
:10060000B8000230B4000E30B7000030B90001303D
:10061000B5004E30803139200630A90087014F30B7
:1006200080312620F40AFA0A031D4E3308000130F7
:10063000F5008131E5297608A000043081310821D8
:10064000EE007408A000143081310821F0006E081B
:100650008400700881311F21F000F10064007008EF
:10066000710483310319352B08007608643E840039
:1006700000308501853D0008EE0080306E07EE00F9
:10068000EF01EF0D6E087407F5008131E5290130A7
:10069000F600F40183311B238231632282314E2222
:1006A0000730A300D0308031DF2008006430AA007A
:1006B000AB01003080310320403080310320143002
:1006C000803103205430803103200E30B6000030DA
:1006D000B8000230B4000E30B7000030B90001306D
:1006E000B5004E3080313920003080313720643001
:1006F0008031DE203030F5008131BE218131BE21D4
:100700008131BE212030F5008131BE212830F50035
:100710008131E5212830F5008131E5210830F500EF
:100720008131E5210130F5008131E5210630F50008
:100730008131E5212830F5008131E5210F30F500C8
:100740008131E52174330E30B6000030B80002303C
:10075000B4000E30B7000030B9000130B500A03051
:100760008031392084310318022C69088031392006
:1007700084310318022C6808803137208431031833
:10078000022C0E30B6000030B8000230B4000E303B
:10079000B7000030B9000130B500A03080313920F9
:1007A00084310318022C80310D2084310318022C6F
:1007B000F90008000E30B6000030B8000230B40076
:1007C0000E30B7000030B9000130B500A0308031E4
:1007D000392084310318022C690880313920843192
:1007E0000318022C68088031392084310318022C48
:1007F00079088031372084310318022C0A30803187
:10080000DE2008003A30AA00AB01453080310320D9
:100810004530803103205030803103205230803108
:1008200003204F30803103204D30803103202030B1
:100830008031032045308031032072308031032025
:100840007230803103206F3080310320723080316C
:1008500003200030803103201A33F3018331172342
:10086000F601F40183311B233A30AA00AB01533067
:1008700080310320573080310320A9012100260850
:100880002000A400A5010230B000B1018031AB20EE
:1008900020308031032000308031032082316322F8
:1008A00064007D08843103196C2C3A30AA00AB0136
:1008B0004F3080310320503080310320453080316B
:1008C00003204E308031032020308031032000305F
:1008D000803103208431812C3A30AA00AB012030D2
:1008E00080310320203080310320203080310320EC
:1008F00020308031032020308031032000308031CF
:10090000032082316322640021002808013C8431E5
:100910002000031D9C2C3A30AA00AB0155308031D9
:1009200003207030803103202030803103200030DC
:10093000803103208431C42C640021002808023C4B
:1009400084312000031DB52C3A30AA00AB0144309D
:10095000803103205730803103204E308031032016
:100960000030803103208431C42C3A30AA00AB011E
:10097000203080310320203080310320203080312E
:1009800003200030803103208231632264008431EF
:100990007F1CEC2C8030210023052000EE00EF01AD
:1009A00064006E086F0484310319E12C3A30AA0008
:1009B000AB012D30803103200030803103208431A1
:1009C000EA2C3A30AA00AB012B30803103200030F2
:1009D000803103208431F52C3A30AA00AB0120305D
:1009E0008031032000308031032082316322F40102
:1009F0000130F60083311B233A30AA00AB014330AB
:100A00008031032075308031032072308031032023
:100A10007230803103206530803103206E308031A8
:100A200003207430803103202030803103200230D5
:100A3000A9007808A400A5010230B000B1018031FE
:100A400098203A30803103200230A9007E08A400AB
:100A5000A5010230B000B101803198200030803112
:100A6000032082316322F4010230F60083311B231C
:100A70003A30AA00AB014430803103206530803128
:100A800003207330803103206930803103207230BD
:100A900080310320653080310320643080310320B1
:100AA0002030803103200230A90021002608553E65
:100AB000840000308501853D00082000EE006E08AE
:100AC000A400A5010230B000B101803198203A3075
:100AD000803103200230A900210026085A3E8400FC
:100AE00000308501853D00082000EE006E08A4005E
:100AF000A5010230B000B101803198200030803172
:100B0000032082316322080064008E1DFD33FF3014
:100B1000EA00FF30EB0020308D00833156238A310C
:100B20003F228731CE27DF30EE00FF30EF0021007B
:100B300023082000EE05EF010F306E072100A3000F
:100B400020008A3137222100A601200064000530F0
:100B500021002602853120000318B82D8A31442255
:100B6000FA308031DE202100A60A2000031DEE337A
:100B7000F030EE00FF30EF00210023082000EE05EA
:100B8000EF0120306E042100A30020008A313722BB
:100B90008A313F22F701640005307702853103185E
:100BA000FE2D7708A600A7010230A200A301813123
:100BB0003B21E8002508E9008331A3237F30790534
:100BC000EE00EF017708553E840000308501853D39
:100BD0006E088000E80A0319E90A8331A3237F30F5
:100BE0007905EE00EF0177085A3E84000030850158
:100BF000853D6E088000F70A031DCD330130F300F8
:100C000088312F2064007D08863103199A2E6400F4
:100C100086317F1C0D2E8731CE27640021002808E5
:100C2000013C86312000031D1D2E8931FD21D0306D
:100C3000F2008731DC2786318C2E640021002808E1
:100C4000023C86312000031D2D2E8A310D22D0302A
:100C5000F2008731DC2786318C2E640086317F1CC0
:100C6000332E8731CE27640021002108003C8631D5
:100C70002000031D402EFF148931F32186318C2E74
:100C800064008631FF1C8C2EFF1088312420210047
:100C900026082000A600A7010230A200A30181318E
:100CA0003B21E8002508E9007808F9008331DA23C0
:100CB000E80A0319E90A88311A2080302100230547
:100CC0002000EE00EF0164006E086F048631031906
:100CD000722E06307E02EE00EF010030EF3B7F30D7
:100CE0006E05FE007E08F9008331DA232100260814
:100CF000553E840000308501853D20007808800045
:100D0000210026085A3E840000308501853D2000E0
:100D10007E0880008931ED2188312F20640073081E
:100D200086310319952E84312D2464007D08003C02
:100D3000031D733388312420F701640005307702E6
:100D400086310318D12E7708553E84000030850186
:100D5000853D0008EE006E0878022100A700803073
:100D600027052000EE00EF0164006E086F04863155
:100D70000319C42E210027092000EE00FF30EF00E8
:100D80006E0A2100A700200064000C302100270219
:100D9000863120000318CE2E8631D12EF70A031D8E
:100DA000CC33640086317F1CE32E8A3150226400EC
:100DB00077082100260286312000031DE12E8731AD
:100DC0004F278631ED2E64007708210026028631F8
:100DD00020000319ED2E8631FB2688312F20640078
:100DE000730886310319F62E84312D2464007D08A2
:100DF0000319A0330733640021002608200077027E
:100E0000873103181E2F7708210026022000EE00EC
:100E1000EF01031CEF036E08A0006F08A100A301FF
:100E2000033081310A218731031D1A2F8931FD21B9
:100E300087311C2F8A310D228731372F2100260858
:100E400020007702EE00EF01031CEF036E08A00004
:100E50006F08A100A301033081310A218731031DEE
:100E6000352F8A310D228731372F8931FD21D0303E
:100E7000F2006400903072028731031C4E2F8731DC
:100E8000DC2764007208903C873103194A2F083030
:100E90008031DE200430F2020318EB3308006400D6
:100EA000D030720287310318612F0830F207873182
:100EB000DC276400D030720287310318612F87313C
:100EC000C12788311A208030210023052000EE0040
:100ED000EF0164006E086F0487310319872F7708CC
:100EE0005A3E840000308501853D0008EE00063042
:100EF0006E07EE00EF01EF0D7F30EE050030EF05DD
:100F00006E087E022100A70020008731942F770809
:100F10005A3E840000308501853D0008EE006E08D1
:100F20007E022100A700200080302100270520003C
:100F3000EE00EF0164006E086F0487310319AA2FD9
:100F4000210027092000EE00FF30EF006E0A21008B
:100F5000A700200064000230210027028731200012
:100F60000318B62F8731CC278731CE2F64002E008F
:100F700083108C1E831420008318A3338731CC2761
:100F80008E33FF309D009C016A309F002E008C1232
:100F9000200080309E0008009E010800FF30F20013
:100FA0008731DC278A31132288311A2088312420A6
:100FB0000130F3007F10080021000A30A400033044
:100FC000A50020008A315E2221000930A400200003
:100FD00072082100A50020008A315E2221000D3018
:100FE000A4000130A50020008A315E2250308031FB
:100FF000EB2064007208FF3C8831031900287F143D
:10100000080020302100240420008D002030210021
:1010100024042000EE000030EF0010306E048D003C
:1010200001308031EB200C082100A50024082000AD
:101030008D0008002100A40120008831012021003A
:1010400025082000FE00080021000130A400200037
:1010500088310120210025082000F8000800210027
:101060000230A40020008831012021002508A000C2
:10107000323020008031DE208831012064002100E0
:10108000250820022000031DF033640021002508FC
:1010900020007B0288310319DD282100250820006B
:1010A000FB000130F3000130210025052000EE0097
:1010B000EF01A001A1016F08A3006E0881310D218D
:1010C0008831031D68282100A60120008831AE2840
:1010D0000230210025052000EE00EF01A001A10152
:1010E0006F08A3006E0881310D218831031D7E2811
:1010F00021000130A60020008831AE2804302100F4
:1011000025052000EE00EF01A001A1016F08A3005A
:101110006E0881310D218831031D94282100023091
:10112000A60020008831AE280830210025052000C7
:10113000EE00EF01A001A1016F08A3006E0881314C
:101140000D218831031DAA2821000330A6002000AC
:101150008831AE2821000430A60020002030210074
:1011600025052000EE00EF0164006E086F04883151
:101170000319BE280130FD008831BF28FD01403031
:10118000210025052000EE00EF0164006E086F04C9
:1011900088310319D12821000130A10020008831B5
:1011A000D4282100A101200064007D0888310319A2
:1011B000DB288A3144228A311D2221000530A40017
:1011C000200088310120210025082000EC00ED01DD
:1011D00021000630A40020008831012003302100C6
:1011E00025052000EE00EF016E08A0006F08A100A9
:1011F00008308031F920EE002108EF006E08EC0481
:101200006F08ED044030210025052000EE00EF01BD
:10121000A001A1016F08A3006E0881310D21893161
:10122000031D182921000130A8002000893131292F
:101230008030210025052000EE00EF01A001A10172
:101240006F08A3006E0881310D218931031D2E29FD
:1012500021000230A8002000893131292100A80195
:1012600020006A08A0006B08A1006D08A3006C08AC
:10127000813105218931031DDE296C08EA006D08E2
:10128000EB00F70164000530770289310318DC298F
:101290007708A600A7010230A200A30181313B21FB
:1012A000EE002508EF006C08A0006D08A1006E0894
:1012B00081310021EE002108EF000330EE050030FF
:1012C000EF05A001A1016F08A3006E0881310D2177
:1012D0008931031D752977085F3E84000030850140
:1012E000853D053080008931D9297708A600A701FE
:1012F0000230A200A30181313B21EE002508EF005E
:101300006C08A0006D08A1006E0881310021EE007C
:101310002108EF000330EE050030EF050130A0009A
:10132000A1016F08A3006E0881310D218931031DD1
:10133000A32977085F3E840000308501853D093090
:1013400080008931D9297708A600A7010230A200C0
:10135000A30181313B21EE002508EF006C08A000BD
:101360006D08A1006E0881310021EE002108EF0018
:101370000330EE050030EF050230A000A1016F0838
:10138000A3006E0881310D218931031DD129770811
:101390005F3E840000308501853D06308000893144
:1013A000D92977085F3E840000308501853D0A30E9
:1013B0008000F70A031D66338A311D2264007C0811
:1013C00021002802893120000319EC292100280876
:1013D0002000FC000130F300080020302100A304AD
:1013E00020008A31372ADF30EE00FF30EF006E0830
:1013F0002100A30520008A31372A7F30EE00FF301C
:10140000EF00210023082000EE05EF0140306E04BC
:101410002100A30020008A31372AC0302100A30414
:1014200020008A31372ABF30EE00FF30EF006E080F
:101430002100A30520008A31372AF030EE00FF306A
:10144000EF00210023082000EE05EF01210026080F
:101450005F3E840000308501853D00082000F000DB
:1014600070086E042100A30020008A31372A210071
:101470000730A4002308A50020008A315E2A21003D
:10148000A50120008A31582A0830A0002100260832
:1014900020008031F9202100A50020008A31582A3F
:1014A0000830A00077088031F9202100A500200035
:1014B00021000430A40020008A315E2A2100240883
:1014C00020008D0010302100240420008D00210018
:1014D000250820008C0091012100240820008D00A7
:0A14E000FF30910008006300FE33A6
:020000040001F9
:02000E009C173D
:080010003F378B07FF1FFF3F84
:00000001FF
