:020000040000FA
:10000000B20150290408A0002A0884002B088500AA
:1000100020088000AA0A03144D29B216B21EB2129B
:10002000B2191628B215672003184E280830A3000D
:100030007C20A20DA30B1828B21E5B208A208420EE
:10004000B21A4E205320220803104D293217321FB6
:100050003213860029080310031D3128321B4E2855
:100060004D291600392003184D29A9032A28B21654
:10007000B21EB21232194128FE39B30032150310F4
:100080004D29321A4928A6003216672003184E2837
:1000900026086F2003184E28B21E4D295B208A20A7
:1000A00032113212B2113808850036088400053149
:1000B0003408800463283808850036088400340931
:1000C0008005053180056428652866284D29532060
:1000D0008A204F215B2084203308B2190138A20006
:1000E0000830A300A20D03185320031C5B208A20B4
:1000F0008420A30B722853208A20380885003608F4
:10010000840034080005FF3E390885003708840064
:1001100035096028390885003708840035085928D2
:10012000A400A90803194D2924084821A9039228ED
:10013000B31329080319B3170430A800250EA5200E
:100140002508A520240EA52024080F39F63E031803
:10015000073E0A3EC828B31329080319B317053010
:10016000A8002730A3001030C1200330A300E830DE
:10017000C120A3016430C120A3010A30C12024089A
:10018000C828A2002508A1002408A0001C212008DE
:10019000A000A8030319B31329080319D2282802C1
:1001A000031808002008031DB313B31B0800303EDA
:1001B000482980010131090BFC334D29A301A2001C
:1001C000FF30A207031CA307031C4D290330A10025
:1001D000E730EC20E028A101A0000000023064001C
:1001E0000310A03B0301A13B0318EF280800A03532
:1001F000A10DFF3E0318F72820084D29A200023068
:100200000829A101A301A20003300829A20005309A
:10021000A80023082102031D0F2922082002043010
:1002200003180130031902302805031DFF304D2942
:100230000404031DFF304D29A501A4011030A600C0
:10024000210DA40DA50D2208A4022308A53B031827
:100250002E292208A4072308A53D0310A00DA10DF7
:10026000A60B202920084D291030A800A101A001CB
:10027000A70CA60C031C40292208A0072308A13DB7
:10028000A10CA00CA50CA40CA80B382924084D29FE
:10029000840031088A0030088200200064000800D1
:1002A00020308400850160308031D920A030840066
:1002B000850150308031D920203084000130850004
:1002C00050308031D920A03084000130850050307A
:1002D0008031D920203084000230850050308031B8
:1002E000D920A03084000230850050308031D920E0
:1002F000203084000330850050308031D920A03078
:1003000084000330850050308031D92020308400B3
:100310000430850050308031D920A0308400043072
:10032000850050308031D920203084000530850090
:1003300050308031D920A030840005308500503005
:100340008031D92020308400063085005030803143
:10035000D92031008D013E00B801C301CE0120003B
:10036000FF30910092010C3093008531532D0830FD
:100370007604CF0008307604EE000030EF00043041
:100380006E04D00008307604D2000E30B600003083
:10039000B8000230B4000E30B7000030B9000130B0
:1003A000B5004E30803139200330A90087014F302D
:1003B000803126200A308031DE200800F0307605BA
:1003C000EE00EF0108306E04CF00F0307605EE004D
:1003D000EF010830EE040030EF0404306E04D0006A
:1003E000F0307605EE00EF0108306E04D1000F30DA
:1003F0007605EE00EF016E08A0006F08A100043042
:100400008031F920EE002108EF0008306E04D200A0
:100410000F307605EE00EF016E08A0006F08A10016
:1004200004308031F920EE002108EF000830EE049E
:100430000030EF0404306E04D3000F307605EE0078
:10044000EF016E08A0006F08A10004308031F92090
:10045000EE002108EF0008306E04D4000E30B60024
:100460000030B8000230B4000E30B7000030B900E0
:100470000130B5004E30803139200630A9008701A7
:100480004F30803126200A308031DE2008003A309B
:10049000AA00AB017508143CEE000030031CFF3EBF
:1004A000EF006E08A9000230B000B10120308031A9
:1004B0009020003080310320FB01640014307B0267
:1004C000833103180F2B7708A000043081310121FC
:1004D000EE007508A000143081310121F0006E0893
:1004E0008400700881311821F000F1006400700868
:1004F0007104823103197E2A83310F2B7B083A3E27
:10050000840000308501853D0008F600640076080F
:10051000003C8231031D8E2A83310F2BF03076058B
:10052000EE00EF010830EE040030EF0401306E04FD
:10053000CF00F0307605EE00EF010830EE04003019
:10054000EF040130EE040030EF0404306E04D000FC
:10055000F0307605EE00EF010830EE040030EF04D5
:1005600001306E04D1000F307605EE00EF016E0809
:10057000A0006F08A10004308031F920EE002108AE
:10058000EF000830EE040030EF0401306E04D200BA
:100590000F307605EE00EF016E08A0006F08A10095
:1005A00004308031F920EE002108EF000830EE041D
:1005B0000030EF040130EE040030EF0404306E042C
:1005C000D3000F307605EE00EF016E08A0006F0833
:1005D000A10004308031F920EE002108EF0008303E
:1005E000EE040030EF0401306E04D4000E30B6008B
:1005F0000030B8000230B4000E30B7000030B9004F
:100600000130B5004E30803139200630A900870115
:100610004F3080312620F50AFB0A031D4E330800B7
:100620000130F6008131DE297708A00004308131E5
:100630000121EE007508A000143081310121F00085
:100640006E088400700881311821F000F100640008
:1006500070087104833103192E2B08007708643E5B
:10066000840000308501853D0008EE0080306E0773
:10067000EE00EF01EF0D6E087507F6008131DE29FF
:100680000130F700F5018331142382315C2282317D
:1006900047220730A300D0308031DF2008006430CB
:1006A000AA00AB01003080310320403080310320AC
:1006B0001430803103205430803103200E30B600D6
:1006C0000030B8000230B4000E30B7000030B9007E
:1006D0000130B5004E308031392000308031372074
:1006E00064308031DE203030F6008131B721813135
:1006F000B7218131B7212030F6008131B721283070
:10070000F6008131DE212830F6008131DE2108300B
:10071000F6008131DE210130F6008131DE21063024
:10072000F6008131DE212830F6008131DE210F30E4
:10073000F6008131DE2174330E30B6000030B8008F
:100740000230B4000E30B7000030B9000130B500FF
:10075000A0308031392083310318FB2B69088031A8
:10076000392083310318FB2B68088031372083310F
:100770000318FB2B0E30B6000030B8000230B40076
:100780000E30B7000030B9000130B500A030803124
:10079000392083310318FB2B80310D20833103185E
:1007A000FB2BFA0008000E30B6000030B800023013
:1007B000B4000E30B7000030B9000130B500A030F1
:1007C0008031392083310318FB2B690880313920AF
:1007D00083310318FB2B68088031392083310318DB
:1007E000FB2B7A088031372083310318FB2B0A302A
:1007F0008031DE2008003A30AA00AB01453080315C
:1008000003204530803103205030803103205230A6
:10081000803103204F30803103204D308031032060
:100820002030803103204530803103207230803108
:1008300003207230803103206F308031032072300A
:10084000803103200030803103201A33F4018331DA
:100850001023F701F501833114233A30AA00AB01CC
:10086000533080310320573080310320A90121000B
:1008700027082000A400A5010230B000B10180319A
:10088000AB202030803103200030803103208231C2
:100890005C2264007E0884310319652C3A30AA007A
:1008A000AB014F3080310320503080310320453080
:1008B000803103204E3080310320203080310320EE
:1008C00000308031032084317A2C3A30AA00AB0109
:1008D00020308031032020308031032020308031CF
:1008E000032020308031032020308031032000306D
:1008F0008031032082315C22640021002908013C00
:1009000084312000031D952C3A30AA00AB015530EC
:10091000803103207030803103202030803103206B
:100920000030803103208431BD2C6400210029086F
:10093000023C84312000031DAE2C3A30AA00AB01EA
:100940004430803103205730803103204E308031D5
:1009500003200030803103208431BD2C3A30AA00BE
:10096000AB01203080310320203080310320203043
:100970008031032000308031032082315C2264000A
:10098000843121008310201C831420008318EA2C5A
:100990008030210024052000EE00EF0164006E0885
:1009A0006F0484310319DF2C3A30AA00AB012D30DB
:1009B000803103200030803103208431E82C3A302C
:1009C000AA00AB012B30803103200030803103209E
:1009D0008431F32C3A30AA00AB012030803103205F
:1009E00000308031032082315C22F5010130F700B4
:1009F000833114233A30AA00AB010230A9007908F0
:100A0000A400A5010230B000B101803198203A3035
:100A1000803103200230A9007F08A400A501023024
:100A2000B000B10180319820003080310320823144
:100A30005C223A30AA00AB012D30803103203E30D9
:100A4000803103200230A90021002708553E840090
:100A500000308501853D00082000EE006E08A400EE
:100A6000A5010230B000B101803198203A308031C8
:100A700003200230A900210027085A3E84000030DC
:100A80008501853D00082000EE006E08A400A50148
:100A90000230B000B1018031982000308031032055
:100AA00082315C22080064008E1DFD3320308D00F1
:100AB00083314F238A312C228731AF27DF30EE007C
:100AC000FF30EF00210024082000EE05EF010F3079
:100AD0006E072100A40020008A3124222100A701F2
:100AE0002000640005302100270285312000031812
:100AF000832D8A313122FA308031DE202100A70A8D
:100B00002000031DEE33F030EE00FF30EF00210037
:100B100024082000EE05EF0120306E042100A4001F
:100B200020008A3124228A312C22F8016400053009
:100B3000780285310318C92D7808A600A701023074
:100B4000A200A30181313421E8002508E9008331A6
:100B50009C237F307A05EE00EF017808553E840033
:100B600000308501853D6E088000E80A0319E90A16
:100B700083319C237F307A05EE00EF0178085A3EDE
:100B8000840000308501853D6E088000F80A031D51
:100B9000CD330130F4008831122064007E088631A4
:100BA00003196B2E6400853121008310201C8314EF
:100BB00020008318DD2D8731AF276400210029082C
:100BC000013C85312000031DED2D8931EA21C03023
:100BD000F3008731B82786315D2E64002100290893
:100BE000023C85312000031DFD2D8931FA21C030E2
:100BF000F3008731B82786315D2E640086312100ED
:100C00008310201C831420008318082E8731AF27FF
:100C1000640021002208003C86312000031D172EAD
:100C20002100A01420008931E02186315D2E64006E
:100C3000863121008310A01C8314200083185D2EB0
:100C40002100A01020008831072021002708200063
:100C5000A600A7010230A200A30181313421E800DF
:100C60002508E9007908FA008331D323E80A03193B
:100C7000E90A7F08FA008030210024052000EE00F8
:100C8000EF0164006E086F04863103194F2E0630A1
:100C90007F07EE00EF01EF0D7F306E05FF0083311F
:100CA000D32321002708553E840000308501853D6F
:100CB0002000790880008931DA218831122064000F
:100CC000740886310319662E8431262464007E0858
:100CD000003C031D723388310720F80164000530A1
:100CE000780286310318A22E7808553E8400003021
:100CF0008501853D0008EE006E0879022100A800FC
:100D0000803028052000EE00EF0164006E086F04BB
:100D100086310319952E210028092000EE00FF30AE
:100D2000EF006E0A2100A800200064000C302100B2
:100D300028028631200003189F2E8631A22EF80A41
:100D4000031DCC336400863121008310201C8314E2
:100D500020008318B92E8A313D22640078082100D2
:100D6000270286312000031DB72E873126278631C2
:100D7000C32E640078082100270286312000031961
:100D8000C32E8631D2268831122064007408863141
:100D90000319CC2E8431262464007E0803199B336A
:100DA0008531CD2D6400210027082000780286318E
:100DB0000318F52E7808210027022000EE00EF012D
:100DC000031CEF036E08A0006F08A100A30103300D
:100DD000813103218631031DF12E8931EA218631CB
:100DE000F32E8931FA2187310E2F210027082000A8
:100DF0007802EE00EF01031CEF036E08A0006F08FD
:100E0000A100A3010330813103218731031D0C2F81
:100E10008931FA2187310E2F8931EA21C030F30060
:100E20006400603073028731031C252F8731B82797
:100E300064007308603C87310319212F083080312A
:100E4000DE200130F3020318EB3308006030F300BA
:100E50006400C0307302873103183A2F0830F3075B
:100E60008731B8276400C0307302873103183A2FE6
:100E70008731A227F2018731FD2780302100240528
:100E80002000EE00EF0164006E086F048731031943
:100E9000612F06307F07EE00EF01EF0D7F30EE058A
:100EA0000030EF0578085A3E840000308501853D0A
:100EB0000008F00070086E022100A80020008731B1
:100EC0006E2F78085A3E840000308501853D000869
:100ED000EE006E087F022100A80020008030210073
:100EE00028052000EE00EF0164006E086F048731D2
:100EF0000319842F210028092000EE00FF30EF00A5
:100F00006E0A2100A800200064001430210028028D
:100F1000873120000318972FF20A64007208023C00
:100F20008731031D972F8731AD278731AF2F64009D
:100F30002E0083108C1E8314200083189C3387316D
:100F4000AD278633FF309D009C016A309F002E0044
:100F50008C12200080309E0008009E010800FF30A7
:100F6000F3008731B8278A3100220130F4000800ED
:100F700021000A30A5000330A60020008A314B2250
:100F800021000930A500200073082100A6002000E0
:100F90008A314B2221000D30A5000130A60020002F
:100FA0008A314B2250308031EB2064007308FF3CC3
:100FB0008731031DE02F2100201020008731E32F0F
:100FC00021002014200008002030210025042000EA
:100FD0008D002030210025042000EE000030EF00BD
:100FE00010306E048D0001308031EB200C082100A0
:100FF000A600250820008D0008002100A501200082
:101000008731E427210026082000FF000800210086
:101010000130A50020008731E427210026082000A8
:10102000F900080021000230A50020008731E427E4
:1010300021002608A100323020008031DE208731D7
:10104000E42764002100260821022000031DF0335C
:1010500064002100260820007C0288310319C02882
:10106000210026082000FC000130F400013021009E
:1010700026052000EE00EF01A001A1016F08A300EA
:101080006E08813106218831031D4B282100A701FC
:101090002000883191280230210026052000EE0032
:1010A000EF01A001A1016F08A3006E0881310621A4
:1010B0008831031D612821000130A70020008831FC
:1010C00091280430210026052000EE00EF01A00148
:1010D000A1016F08A3006E08813106218831031D2C
:1010E000772821000230A70020008831912808309D
:1010F000210026052000EE00EF01A001A1016F08EC
:10110000A3006E08813106218831031D8D2821003E
:101110000330A70020008831912821000430A70067
:1011200020002030210026052000EE00EF016400A1
:101130006E086F0488310319A1280130FE00883140
:10114000A228FE014030210026052000EE00EF011C
:1011500064006E086F0488310319B428210001303F
:10116000A20020008831B7282100A20120006400DD
:101170007E0888310319BE288A3131228A310A2239
:1011800021000530A50020008731E4272100260832
:101190002000EC00ED0121000630A5002000873181
:1011A000E4270330210026052000EE00EF016E0841
:1011B000A0006F08A10008308031F920EE0021085E
:1011C000EF006E08EC046F08ED04403021002605A6
:1011D0002000EE00EF01A001A1016F08A3006E083E
:1011E000813106218831031DFB2821000130A9002F
:1011F0002000893114298030210026052000EE00CE
:10120000EF01A001A1016F08A3006E088131062142
:101210008931031D112921000230A90020008931E4
:1012200014292100A90120006A08A0006B08A10070
:101230006D08A3006C088031FE208931031DCB2985
:101240006C08EA006D08EB00F801640005307802D4
:1012500089310318C9297808A600A7010230A20025
:10126000A30181313421EE002508EF000330A000F6
:10127000A1016E088031F920EE002108EF006E0810
:10128000A0006F08A100A30100308031FE20EE0015
:101290006E086C05EE00EF0164006E086F04893182
:1012A00003195C2978085F3E840000308501853D84
:1012B000053080008931C6297808A600A7010230D0
:1012C000A200A30181313421EE002508EF00033094
:1012D000A000A1016E088031F920EE002108EF0086
:1012E0006E08A0006F08A100A30101308031FE202C
:1012F000EE006E086C05EE00EF0164006E086F04EE
:10130000893103198D2978085F3E840000308501FA
:10131000853D093080008931C6297808A600A701DB
:101320000230A200A30181313421EE002508EF0034
:101330000330A000A1016E088031F920EE002108E1
:10134000EF006E08A0006F08A100A30102308031F9
:10135000FE20EE006E086C05EE00EF0164006E08E2
:101360006F0489310319BE2978085F3E840000307C
:101370008501853D063080008931C62978085F3EA9
:10138000840000308501853D0A308000F80A031D85
:101390005C330130F40064007D08210029028931AA
:1013A00020000319D929210029082000FD0001305F
:1013B000F400080020302100A40420008A31242AEF
:1013C000DF30EE00FF30EF006E082100A4052000A2
:1013D0008A31242A7F30EE00FF30EF0021002408FC
:1013E0002000EE05EF0140306E042100A400200033
:1013F0008A31242AC0302100A40420008A31242A02
:10140000BF30EE00FF30EF006E082100A405200081
:101410008A31242AF030EE00FF30EF00210024084A
:101420002000EE05EF01210027085F3E8400003018
:101430008501853D00082000F00070086E04210041
:10144000A40020008A31242A21000730A5002408A6
:10145000A60020008A314B2A2100A60120008A31F3
:10146000452A0830A0002100270820008031F920FB
:101470002100A60020008A31452A0830A000780803
:101480008031F9202100A600200021000430A500B1
:1014900020008A314B2A2100250820008D001030C1
:1014A0002100250420008D002100260820008C004A
:1014B00091012100250820008D00FF3091000800D7
:0414C0006300FE3394
:020000040001F9
:02000E009C173D
:080010003F378B07FF1FFF3F84
:00000001FF
