:020000040000FA
:100000001F2880010131090BFC331C28A20003309A
:100010000C28A301A2000530A80023082102031D1B
:10002000132822082002043003180130031902307B
:100030002805031DFF301C28400164000800203003
:1000400084008501603080310120A030840085016A
:100050005030803101202030840001308500503044
:1000600080310120A0308400013085005030803183
:100070000120203084000230850050308031012082
:10008000A0308400023085005030803101202030C3
:10009000840003308500503080310120A03084007E
:1000A000033085005030803101202030840004303E
:1000B0008500503080310120A0308400043085005C
:1000C00050308031012020308400053085005030D0
:1000D00080310120A030840005308500503080310F
:1000E000012020308400063085005030803101200E
:1000F00051018D017E01B801C301CE0140012430C0
:1001000092000F309300B13094007E012430B9008A
:10011000093099000A309A000B309B001430A4007B
:100120004B01FF309D009C016A309F004E018C12F4
:10013000961640018031A3284B0180309E000B179A
:100140008B174001080084310F244709C80084310F
:100150003C240430C900843136242030CC00843162
:100160003024FF30BC008331EF23DF304C05BA0070
:10017000BB010F303A07CC008431302453085504BA
:10018000C900843136242030D400D40364005408DC
:10019000003C031DFA33F0304C05BA00BB0120309F
:1001A0003A04CC00843130240730C9058431362428
:1001B00084315B244E08C2004D08BE0084310F24F8
:1001C00020304705BA00BB0164003A083B04813186
:1001D0000319792984311B2440304B05BA00BB0137
:1001E000A001A1013B08A3003A0880310A20813117
:1001F000031D04298331D523C030BC008331EF2394
:10020000FF30BD008131222980304B05BA00BB018F
:10021000A001A1013B08A3003A0880310A208131E6
:10022000031D1C298331E023C030BC008331EF2340
:10023000FF30BD0081312229FF30BC008331EF2324
:100240008331EA2364003D08003C8131031D772996
:1002500084310F2440304705BA00BB01A001A10141
:100260003B08A3003A0880310A208131031D44294C
:10027000FF30C300DF30BA00FF30BB003A08CC05C6
:10028000843130248131772964004308003C813176
:1002900003197729C30164003F08003C8131031D25
:1002A00063298431012445087F3CBA000030031CD7
:1002B000FF3EBB000630BA070030BB3D7F303A0539
:1002C000C200813168298431012445087F3CC20085
:1002D0008431082446080C3CBE004208D0003E0889
:1002E000D100843171242030CC0484313024833116
:1002F0003B2B0730C905F030CC0584311424843100
:100300001B248431082446083E07BA00BB01BB0DFC
:100310007F303A05D30064001A305302813103184C
:10032000BF290130C0000830C90401304A05BA00B5
:10033000BB01A001A1013B08A3003A0880310A20BB
:100340008131031DA7290430CC048131A92908304B
:10035000CC0402304A05BA00BB01A001A1013B0850
:10036000A3003A0880310A208131031DBB290130E6
:10037000CC048131BD290230CC048231872A64004B
:100380003330530281310318F3290230C00010309A
:10039000C90404304A05BA00BB01A001A1013B0811
:1003A000A3003A0880310A208131031DDB29043083
:1003B000CC048131DD290830CC0408304A05BA006C
:1003C000BB01A001A1013B08A3003A0880310A202B
:1003D0008131031DEF290130CC048131F129023034
:1003E000CC048231872A64004D30530282310318D5
:1003F000272A0330C0002030C90410304A05BA0053
:10040000BB01A001A1013B08A3003A0880310A20EA
:100410008231031D0F2A0430CC048231112A0830A6
:10042000CC0402304A05BA00BB01A001A1013B087F
:10043000A3003A0880310A208231031D232A0130AB
:10044000CC048231252A0230CC048231872A640010
:1004500066305302823103185B2A0430C0004030FA
:10046000C90440304A05BA00BB01A001A1013B0804
:10047000A3003A0880310A208231031D432A043048
:10048000CC048231452A0830CC0480304A05BA00B9
:10049000BB01A001A1013B08A3003A0880310A205A
:1004A0008231031D572A0130CC048231592A02308F
:1004B000CC048231872A0530C0008030C904013065
:1004C0004B05BA00BB01A001A1013B08A3003A08FB
:1004D00080310A208231031D712A0430CC0482311C
:1004E000732A0830CC0402304B05BA00BB01A001CE
:1004F000A1013B08A3003A0880310A208231031D84
:10050000852A0130CC048231872A0230CC04843120
:1005100030248431362464003D0882310319E72AEF
:1005200084310F2401304705BA00BB01A001A101AD
:100530003B08A3003A0880310A208231031DA42A17
:100540000130D2008231DC2A02304705BA00BB01FB
:10055000A001A1013B08A3003A0880310A208231A2
:10056000031DB62A0230D2008231DC2A043047054E
:10057000BA00BB01A001A1013B08A3003A088031E9
:100580000A208231031DC82A0330D2008231DC2ABE
:1005900008304705BA00BB01A001A1013B08A30038
:1005A0003A0880310A208231031DDA2A0430D20051
:1005B0008231DC2A0530D2006400400852028231C8
:1005C000031DE52A83319123BD0183313B2B843107
:1005D0000F2401304705BA00BB01A001A1013B086F
:1005E000A3003A0880310A208231031DFB2A013022
:1005F000D2008331332B02304705BA00BB01A00182
:10060000A1013B08A3003A0880310A208331031D71
:100610000D2B0230D2008331332B04304705BA0052
:10062000BB01A001A1013B08A3003A0880310A20C8
:100630008331031D1F2B0330D2008331332B08304D
:100640004705BA00BB01A001A1013B08A3003A087D
:1006500080310A208331031D312B0430D2008331D5
:10066000332B0530D2006400400852028331031955
:100670003B2B83313D238031DE2864003D08003C64
:1006800083310319442B080064004008520283316F
:10069000031C632B40085202BA00BB01031CBB03BE
:1006A0003A08A0003B08A100A301033080310620D6
:1006B0008331031D5F2B8331D5238331612B83313C
:1006C000E02383317A2B52084002BA00BB01031C9D
:1006D000BB033A08A0003B08A100A301033080310E
:1006E00006208331031D782B8331E02383317A2B5D
:1006F0008331D523FF30BD00C030BC0064006030C2
:100700003C028331031C912B8331EF2364003C08AE
:10071000603C8331031D8D2B08000130BC0203189F
:10072000ED3364003F08003C833103199B2B7F307D
:10073000D60083319D2B0530D6006030D300683061
:10074000D3006400C130530283310318CE2B530809
:10075000BC008331EF23D4018431012445084207D2
:10076000BA00BB01BB0D7F30BA050030BB053A08AB
:10077000A0003B08A1005608803109208331031DE9
:10078000CA2BD40A64005408023C8331031DCA2BCF
:100790008331CE2B0830D307031CD333FF30BC008A
:1007A0008331EF238331EA2308000130BF003F305B
:1007B0004C05BA00BB0140303A04CC008431302CE7
:1007C000BF013F304C05BA00BB01C0303A04CC0039
:1007D0008431302CBD013F30CC058431302CF830D1
:1007E000C905843136240330CF0084314E243C08BF
:1007F000D100843148241C30C1008431A824080071
:1008000008002030D700843100245808C5000800B3
:100810002130D700843100245808C6000800223057
:10082000D7008431002408002530D700843100240B
:100830005808CA0008002630D70084310024580820
:10084000CB0008002B30D700843100245808CE009C
:1008500008002C30D700843100245808CD0008004F
:100860000730D7004C08D80084315A2C0430D70008
:100870004908D80084315A2C0330D7004808D800E2
:1008800084315A2C0830D7005008D80084315A2CB3
:100890000930D7005108D80084315A2C0A30D700CB
:1008A0004F08D80084315A2C0D30D7000130D800C1
:1008B00084315A2C0800F8304905BA00BB010430D5
:1008C0003A07C900843136248030CF0084314E2469
:1008D0002B30C1008431A82484312924843122247E
:1008E0000800F8304905BA00BB0105303A04C900D8
:1008F000843136243030CF0084314E241030C10092
:100900008431A824F8304905BA00BB0104303A0408
:10091000C900843136248431482484314224403053
:10092000CF0084314E242B30C1008431A824F8300C
:100930004905BA00BB0105303A04C90084313624A8
:10094000CF0184314E241030C1008431A824080026
:0A0950008431542408006300FE33D4
:020000040001F9
:02000E00883B2D
:080010007D37BF07FF1FFF3F12
:00000001FF
