:020000040000FA
:10000000562880010131090BFC335328A301A200BB
:10001000FF30A207031CA307031C53280330A100D1
:10002000E73014200828A101A0000000023064007D
:100030000310A03B0301A13B031817280800A035BB
:10004000A10DFF3E03181F2820085328A2000230EC
:100050002F28A20003302F28A301A2000530A800FA
:1000600023082102031D3628220820020430031829
:100070000130031902302805031DFF3053281030CA
:10008000A800A101A001A70CA60C031C4B28220864
:10009000A0072308A13DA10CA00CA50CA40CA80B43
:1000A00043282408532840016400080020308400BD
:1000B0008501603080310120A030840085015030FE
:1000C00080310120203084000130850050308031A3
:1000D0000120A030840001308500503080310120A3
:1000E0002030840002308500503080310120A03063
:1000F000840002308500503080310120203084009F
:1001000003308500503080310120A030840003305E
:10011000850050308031012020308400043085007B
:10012000503080310120A0308400043085005030F0
:10013000803101202030840005308500503080312E
:100140000120A0308400053085005030803101202E
:10015000203084000630850050308031012051016C
:100160008D017E01B801C301CE014001FF30930033
:1001700093017E01093099000A309A000B309B00F0
:100180001430A4004B01FF309D009C016A309F0099
:100190004E018C12961640018031D5284B018030DB
:1001A0009E000B178B174001080020308D00833113
:1001B000A3234809C9008331F9230430CA008331DD
:1001C000F3232030CB008331ED23FF30C000833197
:1001D0007123DF30BC00FF30BD004B08BC05BD0102
:1001E0000F303C07CB008331ED2307304A05BC00BC
:1001F000BD0108303C04CA008331F323FA3080315A
:10020000062007304A05BC00BD01F8304A05BE0093
:10021000BF01BE35BF0D3C083E04CA00F8304A0598
:10022000BC00BD01A001A1013D08A3003C08803134
:100230002D20031DE133F030BC00FF30BD004B0822
:10024000BC05BD0120303C04CB008331ED230730D9
:10025000CA058331F323843126245108C300500892
:10026000C1008331A32320304805BC00BD016400D8
:100270003C083D0481310319B3298331B423640060
:100280005808013C8131031D4E2983315623C0306B
:10029000C00083317123C41481316329640058087C
:1002A000023C8131031D5D2983316323C030C000CE
:1002B00083317123C41481316329FF30C00083313D
:1002C00071238331682364008131C418B1298331DB
:1002D000A32340304805BC00BD01A001A1013D0899
:1002E000A3003C0880312D208131031D8229441553
:1002F000DF30BC00FF30BD003C08CB058331ED236F
:100300008131B12964008131441DB1294411640057
:10031000813144189D298331962346087F3CBC00D7
:100320000030031CFF3EBD000630BC070030BD3D61
:100330007F303C05C3008131A229833196234608D2
:100340007F3CC30083319C2347080C3CC100430819
:10035000D3004108D400843144242030CB048331BD
:10036000ED238231BE2A8331B42383319C23470895
:100370004107BC00BD01BD0D7F303C05D5006400C8
:100380001A30550281310318C829C2018131E82988
:1003900064003330550281310318D2290130C20084
:1003A0008131E82964004D30550281310318DC2980
:1003B0000230C2008131E829640066305502813183
:1003C0000318E6290330C2008131E8290430C20055
:1003D000F030BC00FF30BD003C08CB054208A60051
:1003E000A7010230A200A30180313F20BC002508F4
:1003F000BD000130A000A1013C0880312120BC00DB
:100400002108BD003C08A0003D08A100A301003068
:1004100080312620BC003C083A05BC00BD016400C8
:100420003C083D0482310319192A0430CB0482317F
:100430001B2A0830CB044208A600A7010230A20004
:10044000A30180313F20BC002508BD000230A00080
:10045000A1013C0880312120BC002108BD003C08DE
:10046000A0003D08A100A301003080312620BC007F
:100470003C083A05BC00BD0164003C083D048231E3
:100480000319462A0130CB048231482A0230CB04BA
:100490008331ED2307304A05BC00BD010830A000C0
:1004A000A101420880312120BE002108BF003C0884
:1004B0003E04CA008331F3238331A323013048056E
:1004C000BC00BD01A001A1013D08A3003C08803192
:1004D0002D208231031D6F2ACE018231A72A0230DE
:1004E0004805BC00BD01A001A1013D08A3003C08D6
:1004F00080312D208231031D812A0130CE008231CE
:10050000A72A04304805BC00BD01A001A1013D0897
:10051000A3003C0880312D208231031D932A023034
:10052000CE008231A72A08304805BC00BD01A001D9
:10053000A1013D08A3003C0880312D208231031D1C
:10054000A52A0330CE008231A72A0430CE006400F1
:100550008231C41CB62A640042084E028231031D57
:10056000B42A83311423C4108231BE2A64004208A5
:100570004E0282310319BE2A8231C02281313129D3
:1005800064008231C41CC52A0800640042084E027F
:100590008231031CE42A42084E02BC00BD01031C48
:1005A000BD033C08A0003D08A100A3010330803139
:1005B00029208231031DE02A833156238231E22A29
:1005C000833163238231FB2A4E084202BC00BD0105
:1005D000031CBD033C08A0003D08A100A30103309B
:1005E000803129208231031DF92A8331632382312E
:1005F000FB2A83315623C414C030C000640060302D
:1006000040028331031C132B8331712364004008A3
:10061000603C833103190F2B0830803106200130F4
:10062000C0020318EB33080064008331441C1C2B08
:100630007F30D70083311E2B0530D7006030D500C6
:100640006830D5006400C1305502833103184F2B48
:100650005508C00083317123D601833196234608A3
:100660004307BC00BD01BD0D7F30BC050030BD059A
:100670003C08A0003D08A100570880312C208331A0
:10068000031D4B2BD60A64005608023C8331031D20
:100690004B2B83314F2B0830D507031CD333FF304E
:1006A000C0008331712383316823080044147F30F4
:1006B000BC00FF30BD004B08BC05BD0140303C0410
:1006C000CB008331ED2B4410C030CB048331ED2BB4
:1006D000C4103F30BC00FF30BD003C08CB05833167
:1006E000ED2BF830CA058331F3230330D200843177
:1006F0000B244008D400843105241030CF0084310D
:100700007E240800FF30920020304C048D00103011
:100710004C048D000130803113200C08CD00EF30E7
:10072000BC00FF30BD003C088D050800CC018331C2
:1007300082234D08C60008000130CC00833182239B
:100740004D08C70008000230CC00833182234D08D9
:10075000C5003230803106208331822364004D0889
:100760004502031DF43308000530CC008331822399
:100770004D08BA00BB010630CC0083318223033020
:100780004D05BC00BD013C08A0003D08A10008309B
:1007900080312120BC002108BD003C08BA043D087E
:1007A000BB04D80140304D05BC00BD0164003C08CD
:1007B0003D0483310319E02B0130D8008331EC2B49
:1007C00080304D05BC00BD0164003C083D04833110
:1007D0000319EC2B0230D80008000730CC004B087E
:1007E000CD008431112C0430CC004A08CD00843176
:1007F000112C0330CC004908CD008431112C083075
:10080000CC005308CD008431112C0930CC005408A1
:10081000CD008431112C0A30CC005208CD00843137
:10082000112CDF30BC00FF30BD004C083C058D00B2
:1008300010308D044D088C009201EF30BC00FF3069
:10084000BD003C088D05FF3092000800F8304A05D5
:10085000BC00BD0104303C04CA008331F323803066
:10086000D20084310B241930CF0084317E240C3027
:10087000CC00833182234D08D0000B30CC00833173
:1008800082234D08D1000800F8304A05BC00BD01A4
:1008900005303C04CA008331F3233030D200843168
:1008A0000B240930CF0084317E24F8304A05BC0087
:1008B000BD0104303C04CA008331F3238431052494
:1008C0008331FF234030D20084310B241930CF0014
:1008D00084317E240F3080310620F8304A05BC0078
:1008E000BD0105303C04CA008331F323D2018431B9
:1008F0000B240930CF0084317E2408000D30CC0059
:100900000130CD008E334F08A600A7010530A200AC
:10091000A30180313F20BC002508BD003D08A10097
:0C0920003C088031142008006300FE3306
:020000040001F9
:02000E00883B2D
:080010007D37BF07FF1FFF3F12
:00000001FF
