:020000040000FA
:10000000B201FA280408A0002A0884002B08850001
:1000100020088000AA0A0314F728B216B21EB212F2
:10002000B2191628B215672003184E280830A3000D
:100030007C20A20DA30B1828B21E5B208A208420EE
:10004000B21A4E20532022080310F7283217321F0D
:100050003213860029080310031D3128321B4E2855
:10006000F728160039200318F728A9032A28B21602
:10007000B21EB21232194128FE39B30032150310F4
:10008000F728321A4928A6003216672003184E288E
:1000900026086F2003184E28B21EF7285B208A20FE
:1000A00032113212B2113808850036088400063148
:1000B0003408800463283808850036088400340931
:1000C000800506318005642865286628F7285320B6
:1000D0008A20F9205B2084203308B2190138A2005D
:1000E0000830A300A20D03185320031C5B208A20B4
:1000F0008420A30B722853208A20380885003608F4
:10010000840034080005FF3E390885003708840064
:1001100035096028390885003708840035085928D2
:10012000A400A9080319F7282408F220A90392289B
:1001300080010131090BFC33F728A301A200FF3035
:10014000A207031CA307031CF7280330A100E73014
:10015000AB209F28A101A000000002306400031022
:10016000A03B0301A13B0318AE280800A035A10D58
:10017000FF3E0318B6282008F728A2000230CA283C
:10018000A101A301A2000330CA28A2000130CA289D
:10019000A2000530A80023082102031DD12822084F
:1001A0002002043003180130031902302805031D12
:1001B000FF30F7280404031DFF30F7281030A80093
:1001C000A101A001A70CA60C031CEA282208A00785
:1001D0002308A13DA10CA00CA50CA40CA80BE2289F
:1001E0002408F728840031088A0030088200400182
:1001F0006400080020308400850160308031982040
:10020000A030840085015030803198202030840057
:1002100001308500503080319820A03084000130BA
:1002200085005030803198202030840002308500D5
:10023000503080319820A03084000230850050304A
:100240008031982020308400033085005030803188
:100250009820A030840003308500503080319820F1
:100260002030840004308500503080319820A03048
:100270008400043085005030803198202030840084
:1002800005308500503080319820A0308400053042
:100290008500503080319820203084000630850061
:1002A00050308031982051018D017E01B801C30189
:1002B000CE014001FF3092009301103094007E0186
:1002C000093099000A309A000B309B001430A400CA
:1002D0004B01FF309D009C016A309F004E018C1243
:1002E0009616400181317B294B0180309E000B170F
:1002F0008B17400108008331E62B08306304CB00E4
:1003000008306304DC000030DD0004305C04CC0005
:1003100008306304CE000E30B6000030B800023062
:10032000B4000E30B7000030B9000130B5004E30D7
:10033000803139200330A90087014B3080312620DD
:100340000A3080319D200800F0306305DC00DD01BB
:1003500008305C04CB00F0306305DC00DD010830C0
:10036000DC040030DD0404305C04CC00F0306305B4
:10037000DC00DD0108305C04CD000F306305DC00DB
:10038000DD015C08A0005D08A10004308031B820C8
:10039000DC002108DD0008305C04CE000F3063056E
:1003A000DC00DD015C08A0005D08A10004308031A4
:1003B000B820DC002108DD000830DC040030DD045A
:1003C00004305C04CF000F306305DC00DD015C0805
:1003D000A0005D08A10004308031B820DC002108B5
:1003E000DD0008305C04D0000E30B6000030B800EC
:1003F0000230B4000E30B7000030B9000130B50053
:100400004E30803139200630A90087014B308031D1
:1004100026200A3080319D2008003A30AA00AB0126
:100420006208103CDC000030031CFF3EDD005C086D
:10043000A9000230B000B10120308031902000309E
:1004400080310320E8016400103068028231031813
:10045000D52A6408A00002308031C020DC00620888
:10046000A00010308031C020DE005C0884005E08EF
:100470008031DA20DE00DF0064005E085F04823134
:100480000319442A8231D52A68083A3E8400003094
:100490008501853D0008E30064006308003C82316B
:1004A000031D542A8231D52AF0306305DC00DD01BA
:1004B0000830DC040030DD0401305C04CB00F03097
:1004C0006305DC00DD010830DC040030DD040130B0
:1004D000DC040030DD0404305C04CC00F030630543
:1004E000DC00DD010830DC040030DD0401305C0498
:1004F000CD000F306305DC00DD015C08A0005D0865
:10050000A10004308031B820DC002108DD00083073
:10051000DC040030DD0401305C04CE000F306305E4
:10052000DC00DD015C08A0005D08A1000430803122
:10053000B820DC002108DD000830DC040030DD04D8
:100540000130DC040030DD0404305C04CF000F30E7
:100550006305DC00DD015C08A0005D08A10004303B
:100560008031B820DC002108DD000830DC040030D8
:10057000DD0401305C04D0000E30B6000030B8005D
:100580000230B4000E30B7000030B9000130B500C1
:100590004E30803139200630A90087014B30803140
:1005A0002620E20AE80A031D4E3308000130E3006A
:1005B0008131A4296408A00002308031C020DC0011
:1005C0006208A00010308031C020DE005C0884008A
:1005D0005E088031DA20DE00DF0064005E085F0420
:1005E00082310319F42A08006408563E8400003062
:1005F0008501853D0008DC0080305C07DC00DD0102
:10060000DD0D5C086207E3008131A4290130E400BC
:10061000E2018231DA228231222282310D22073038
:10062000A300D03080319E2008005630AA00AB01D4
:100630000030803103204030803103200E30B6007E
:100640000030B8000230B4000E30B7000030B900FE
:100650000130B5004E3080313920003080313720F4
:10066000643080319D203030E30081317D21813143
:100670007D2181317D212030E30081317D212830B1
:10068000E3008131A4212830E3008131A421083026
:10069000E3008131A4210130E3008131A42106303F
:1006A000E3008131A4212830E3008131A4210F30FF
:1006B000E3008131A4217A330E30B6000030B80057
:1006C0000230B4000E30B7000030B9000130B50080
:1006D000A0308031392083310318BB2B5908803179
:1006E000392083310318BB2B5808803137208331E0
:1006F0000318BB2B0E30B6000030B8000230B40037
:100700000E30B7000030B9000130B500A0308031A4
:10071000392083310318BB2B80310D20833103181E
:10072000BB2BE70008000E30B6000030B8000230E6
:10073000B4000E30B7000030B9000130B500A03071
:100740008031392083310318BB2B5908803139207F
:1007500083310318BB2B58088031392083310318AB
:10076000BB2B67088031372083310318BB2B0A303D
:1007700080319D2008003A30AA00AB01453080311D
:100780000320453080310320503080310320523027
:10079000803103204F30803103204D3080310320E1
:1007A0002030803103204530803103207230803189
:1007B00003207230803103206F308031032072308B
:1007C00080310320003080310320203320308D0021
:1007D000833115238631D1260330F1006D09F200F3
:1007E000873129270430EF00873123272030F0009C
:1007F00087311D27FF30E10086318C26DF30DC0099
:10080000FF30DD007008DC05DD010F305C07F00013
:1008100087311D2707306F05DC00DD0108305C04DF
:10082000EF0087312327FA3080319D2007306F0594
:10083000DC00DD01F8306F05DE00DF01DE35DF0DA5
:100840005C085E04EF00F8306F05DC00DD01A001FC
:10085000A1015D08A3005C088031C820031DE133BD
:10086000F030DC00FF30DD007008DC05DD012030F9
:100870005C04F00087311D270730EF0587312327FF
:10088000E501640005306502843103186B2C6508AE
:10089000D800D90183315C236508513E84000030C3
:1008A0008501853D670880006508513E8400003061
:1008B0008501853D0008DC007F305C05DC00DD0142
:1008C0006508513E840000308501853D5C0880004C
:1008D000E50A031DD6338531AF258631D126013097
:1008E0006D05DC00DD01A001A1015D08A3005C082D
:1008F0008031C8208431031D802CF3018431B82C51
:1009000002306D05DC00DD01A001A1015D08A3003E
:100910005C088031C8208431031D922C0130F30023
:100920008431B82C04306D05DC00DD01A001A1018B
:100930005D08A3005C088031C8208431031DA42C0D
:100940000230F3008431B82C08306D05DC00DD0185
:10095000A001A1015D08A3005C088031C82084319A
:10096000031DB62C0330F3008431B82C0430F3009F
:1009700020306D05DC00DD0164005C085D0485311C
:1009800003191D2D8631E22664007408013C843170
:10099000031DD22C86317C26C030E10086318C26A6
:1009A00085311B2D64007408023C8431031DE02C4A
:1009B00086318826C030E10086318C2685311B2D9A
:1009C000640084316B18E62C8631702640306D054A
:1009D000DC00DD01A001A1015D08A3005C088031FD
:1009E000C8208431031DFF2CEB14DF30DC00FF3006
:1009F000DD005C08F00587311D2785311B2D640063
:100A00008531EB1C1B2DEB108631CA267308D800EC
:100A1000D9016608E700833193237308E500650870
:100A2000513E840000308501853D660880002030FD
:100A3000F00487311D278531AD2D8631E2268631C0
:100A4000CA26F030DC00FF30DD005C08F0056508E8
:100A5000A600A7010230A200A3018031DE20DC0045
:100A60002508DD000130A000A1015C088031B8201C
:100A7000DC002108DD005C08A0005D08A100A301E6
:100A800000308031BD20DC005C085A05DC00DD014F
:100A900064005C085D0485310319522D0430F004B4
:100AA0008531542D0830F0046508A600A7010230F6
:100AB000A200A3018031DE20DC002508DD00023029
:100AC000A000A1015C088031B820DC002108DD0015
:100AD0005C08A0005D08A100A30100308031BD20AA
:100AE000DC005C085A05DC00DD0164005C085D0484
:100AF000853103197F2D0130F0048531812D0230BD
:100B0000F00487311D2707306F05DC00DD01083058
:100B1000A000A10165088031B820DE002108DF00B7
:100B20005C085E04EF0087312327640085316B1C6D
:100B3000A52D8531AF256400650873028531031D3D
:100B4000A32D86312C268531AD2D640065087302F6
:100B500085310319AD2D8531DA2584316D2CE50100
:100B600064000530650285310318D72D6508513EB4
:100B7000840000308501853D0008DC0066085C02C9
:100B8000DC00DD01031CDD037F30DC050030DD050A
:100B90005C08A0005D08A100A30119308031C520C8
:100BA0008531031DD42D0800E50A031DD933043017
:100BB000E50008008631C4266908EA00640073086D
:100BC000650285310318FD2D65087302DC00DD0127
:100BD000031CDD035C08A0005D08A100A301033035
:100BE0008031C2208531031DF92D86317C26853167
:100BF000FB2D863188268631142E73086502DC00B1
:100C0000DD01031CDD035C08A0005D08A100A30159
:100C100003308031C2208631031D122E8631882692
:100C20008631142E86317C26C030E10064006030AD
:100C300061028631031C2B2E86318C2664006108EC
:100C4000603C86310319272E083080319D20013009
:100C5000E1020318EB3308006030E1006400C030AB
:100C6000610286310318402E0830E10786318C2658
:100C70006400C030610286310318402E86315F2641
:100C8000E0018631C426640069086A028631031DCA
:100C9000542EE00A64006008023C8631031D542E85
:100CA00086316C268631702E64004E0183108C1EB6
:100CB000831440018318E53386316C26CF334B0112
:100CC000FF309D009C016A309F004E018C124B0149
:100CD00080309E00400108004B019E014001080049
:100CE000FF30E10086318C263F30DC00FF30DD0034
:100CF0005C08F00587311D2F7F30DC00FF30DD0000
:100D00007008DC05DD0140305C04F00087311D2FE8
:100D1000C030F00487311D2FF830EF0587312327CD
:100D20000A30F1000330F200873129270930F10041
:100D30006108F200873129270D30F1000130F200FF
:100D40008731292F50308031AA2064006108FF3C90
:100D50008631031DAE2E6B108631AF2E6B1408004A
:100D6000FF309200203071048D00103071048D002E
:100D700001308031AA200C08F200EF30DC00FF3097
:100D8000DD005C088D050800F1018631B02672088F
:100D9000E90008000130F1008631B0267208E60053
:100DA00008000230F1008631B0267208EC003230C3
:100DB00080319D208631B026640072086C02031DCC
:100DC000F43308000530F1008631B0267208DA00ED
:100DD000DB010630F1008631B02603307205DC00FD
:100DE000DD015C08A0005D08A10008308031B8205A
:100DF000DC002108DD005C08DA045D08DB0440301B
:100E00007205DC00DD0164005C085D0487310319B4
:100E10000D2F0130F40087311C2F80307205DC006B
:100E2000DD0164005C085D04873103191B2F02306B
:100E3000F40087311C2FF40108000730F10070081E
:100E4000F2008731292F0430F1006F08F20087315A
:100E5000292FDF30DC00FF30DD0071085C058D00DC
:100E600010308D0472088C009201EF30DC00FF30EE
:100E7000DD005C088D05FF30920008006300FE3342
:020000040001F9
:02000E00883B2D
:080010007D37BF07FF1FFF3F12
:00000001FF
